P  CODE 00
P  UNITS CUST 0
P  arrayDim   N
317NET-(INA_1-A0)   VIA        MD0118PA00X-011210Y-001896X0236Y0000R000S1119354147
317+3.3V            VIA        MD0079PA00X+000945Y+000945X0138Y0000R000S1119354147
317+3.3V            VIA        MD0118PA00X+005807Y-000679X0236Y0000R000S1119354147
317+3.3V            VIA        MD0118PA00X+008228Y-005157X0236Y0000R000S1119354147
317+3.3V            VIA        MD0118PA00X+005807Y+000335X0236Y0000R000S1119354147
317+3.3V            VIA        MD0079PA00X+000315Y+002835X0138Y0000R000S1119354147
317+3.3V            VIA        MD0118PA00X+005827Y-003957X0236Y0000R000S1119354147
317+3.3V            VIA        MD0118PA00X+005390Y-005689X0236Y0000R000S1119354147
317+3.3V            VIA        MD0118PA00X+007813Y+001073X0236Y0000R000S1119354147
317+3.3V            VIA        MD0118PA00X-002890Y-006476X0236Y0000R000S1119354147
317+3.3V            VIA        MD0118PA00X-010402Y-006476X0236Y0000R000S1119354147
317+3.3V            VIA        MD0079PA00X+002835Y+002835X0138Y0000R000S1119354147
317+3.3V            VIA        MD0079PA00X+001575Y+003465X0138Y0000R000S1119354147
317+3.3V            VIA        MD0118PA00X-006693Y+001437X0236Y0000R000S1119354147
317+3.3V            VIA        MD0197PA00X+011020Y-010846X0315Y0000R000S1119354147
317+3.3V            VIA        MD0118PA00X+004642Y-008169X0236Y0000R000S1119354147
317+3.3V            VIA        MD0079PA00X-000945Y-002520X0138Y0000R000S1119354147
317+3.3V            VIA        MD0197PA00X+011020Y-010059X0315Y0000R000S1119354147
317+3.3V            VIA        MD0079PA00X+002844Y+001585X0138Y0000R000S1119354147
317+3.3V            VIA        MD0079PA00X+001260Y-002205X0138Y0000R000S1119354147
317+3.3V            VIA        MD0079PA00X+000945Y+002205X0138Y0000R000S1119354147
317+3.3V            VIA        MD0118PA00X+001732Y-003760X0236Y0000R000S1119354147
317+3.3V            VIA        MD0079PA00X+001260Y-002835X0138Y0000R000S1119354147
317+3.3V            VIA        MD0079PA00X-001260Y-001890X0138Y0000R000S1119354147
317+3.3V            VIA        MD0079PA00X+001890Y+002205X0138Y0000R000S1119354147
317+3.3V            VIA        MD0118PA00X+004882Y+004882X0236Y0000R000S1119354147
317+3.3V            VIA        MD0079PA00X+000000Y-002520X0138Y0000R000S1119354147
317+3.3V            VIA        MD0197PA00X-004567Y-005748X0315Y0000R000S1119354147
317+3.3V            VIA        MD0079PA00X+001575Y+000315X0138Y0000R000S1119354147
317+3.3V            VIA        MD0118PA00X-008809Y-002854X0236Y0000R000S1119354147
317+3.3V            VIA        MD0079PA00X+003150Y-002205X0138Y0000R000S1119354147
317+3.3V            VIA        MD0118PA00X-007018Y+002539X0236Y0000R000S1119354147
317+3.3V            VIA        MD0079PA00X+002520Y-002520X0138Y0000R000S1119354147
317+3.3V            VIA        MD0118PA00X-007726Y-002963X0236Y0000R000S1119354147
317+3.3V            VIA        MD0118PA00X+004602Y-006476X0236Y0000R000S1119354147
317+3.3V            VIA        MD0079PA00X+003455Y+000935X0138Y0000R000S1119354147
317+3.3V            VIA        MD0118PA00X+004272Y-003957X0236Y0000R000S1119354147
317+3.3V            VIA        MD0118PA00X+005046Y-003944X0236Y0000R000S1119354147
317+3.3V            VIA        MD0079PA00X+002195Y+001270X0138Y0000R000S1119354147
317+3.3V            VIA        MD0118PA00X+000433Y+005118X0236Y0000R000S1119354147
317+3.3V            VIA        MD0118PA00X+009452Y+005084X0236Y0000R000S1119354147
317+3.3V            VIA        MD0118PA00X+010784Y-010650X0236Y0000R000S1119354147
317+3.3V            VIA        MD0197PA00X-002894Y-005748X0315Y0000R000S1119354147
317+3.3V            VIA        MD0118PA00X-007205Y-000827X0236Y0000R000S1119354147
317+3.3V            VIA        MD0079PA00X-000945Y+001575X0138Y0000R000S1119354147
317+3.3V            VIA        MD0118PA00X-009596Y-003642X0236Y0000R000S1119354147
317+3.3V            VIA        MD0079PA00X-001575Y-002835X0138Y0000R000S1119354147
317+3.3V            VIA        MD0118PA00X+008468Y-000507X0236Y0000R000S1119354147
317+3.3V            VIA        MD0079PA00X-000630Y+000630X0138Y0000R000S1119354147
317+3.3V            VIA        MD0118PA00X-007726Y-003701X0236Y0000R000S1119354147
317+3.3V            VIA        MD0197PA00X+011020Y-010453X0315Y0000R000S1119354147
317+3.3V            VIA        MD0079PA00X+001890Y-001260X0138Y0000R000S1119354147
317+3.3V            VIA        MD0118PA00X-002850Y-008169X0236Y0000R000S1119354147
317+3.3V            VIA        MD0197PA00X+010547Y-010846X0315Y0000R000S1119354147
317+3.3V            VIA        MD0079PA00X+002835Y-000325X0138Y0000R000S1119354147
317+3.3V            VIA        MD0079PA00X-001260Y+002520X0138Y0000R000S1119354147
317+3.3V            VIA        MD0118PA00X+000709Y+004547X0236Y0000R000S1119354147
317+3.3V            VIA        MD0079PA00X-001575Y+000315X0138Y0000R000S1119354147
317+3.3V            VIA        MD0118PA00X+010226Y-001471X0236Y0000R000S1119354147
317+3.3V            VIA        MD0079PA00X+001890Y-001890X0138Y0000R000S1119354147
317+3.3V            VIA        MD0118PA00X-004685Y+001250X0236Y0000R000S1119354147
317+3.3V            VIA        MD0079PA00X-002520Y-003150X0138Y0000R000S1119354147
317+3.3V            VIA        MD0118PA00X-009614Y-005689X0236Y0000R000S1119354147
317+3.3V            VIA        MD0079PA00X+002510Y+000325X0138Y0000R000S1119354147
317+3.3V            VIA        MD0118PA00X-002480Y+004173X0236Y0000R000S1119354147
317+3.3V            VIA        MD0079PA00X+000315Y+000945X0138Y0000R000S1119354147
317+3.3V            VIA        MD0118PA00X+006024Y+006043X0236Y0000R000S1119354147
317+3.3V            VIA        MD0118PA00X-002102Y-005689X0236Y0000R000S1119354147
317+3.3V            VIA        MD0079PA00X+000000Y+001890X0138Y0000R000S1119354147
317+3.3V            VIA        MD0118PA00X+005807Y-001693X0236Y0000R000S1119354147
317+3.3V            VIA        MD0118PA00X-008848Y-001161X0236Y0000R000S1119354147
317+3.3V            VIA        MD0118PA00X+010784Y-010256X0236Y0000R000S1119354147
317+3.3V            VIA        MD0079PA00X+000630Y-003150X0138Y0000R000S1119354147
317+3.3V            VIA        MD0118PA00X+008228Y-004213X0236Y0000R000S1119354147
317+3.3V            VIA        MD0079PA00X-000315Y+002835X0138Y0000R000S1119354147
317+3.3V            VIA        MD0118PA00X-006358Y-000827X0236Y0000R000S1119354147
317+3.3V            VIA        MD0118PA00X-010362Y-008169X0236Y0000R000S1119354147
317+3.3V            VIA        MD0118PA00X+003478Y-003950X0236Y0000R000S1119354147
317+3.3V            VIA        MD0079PA00X+002835Y-001575X0138Y0000R000S1119354147
317+3.3V            VIA        MD0118PA00X+004232Y+002815X0236Y0000R000S1119354147
317+3.3V            VIA        MD0118PA00X+008118Y+003514X0236Y0000R000S1119354147
317IIC_SCL          VIA        MD0118PA00X-011708Y-003209X0236Y0000R000S1119354147
317IIC_SCL          VIA        MD0118PA00X-000984Y-004547X0236Y0000R000S1119354147
317IIC_SCL          VIA        MD0118PA00X+007502Y-006122X0236Y0000R000S1119354147
317IIC_SCL          VIA        MD0118PA00X+000000Y-005098X0236Y0000R000S1119354147
317IIC_SCL          VIA        MD0118PA00X+000000Y-004547X0236Y0000R000S1119354147
317IIC_SCL          VIA        MD0118PA00X+000000Y-006126X0236Y0000R000S1119354147
317IIC_SCL          VIA        MD0118PA00X-007502Y-006122X0236Y0000R000S1119354147
317IIC_SCL          VIA        MD0118PA00X-004567Y-003642X0236Y0000R000S1119354147
317GND              VIA        MD0079PA00X-000315Y-000630X0138Y0000R000S1119354147
317GND              VIA        MD0197PA00X-006890Y+016240X0315Y0000R000S1119354147
317GND              VIA        MD0079PA00X-000315Y-000945X0138Y0000R000S1119354147
317GND              VIA        MD0197PA00X-008858Y+016240X0315Y0000R000S1119354147
317GND              VIA        MD0197PA00X-002510Y+008543X0315Y0000R000S1119354147
317GND              VIA        MD0079PA00X+001260Y+002835X0138Y0000R000S1119354147
317GND              VIA        MD0197PA00X-012795Y-015551X0315Y0000R000S1119354147
317GND              VIA        MD0197PA00X+017126Y+006299X0315Y0000R000S1119354147
317GND              VIA        MD0118PA00X+009998Y+003474X0236Y0000R000S1119354147
317GND              VIA        MD0079PA00X-002835Y+000000X0138Y0000R000S1119354147
317GND              VIA        MD0197PA00X+012795Y-016732X0315Y0000R000S1119354147
317GND              VIA        MD0197PA00X+004134Y+012598X0315Y0000R000S1119354147
317GND              VIA        MD0079PA00X-000630Y-002205X0138Y0000R000S1119354147
317GND              VIA        MD0079PA00X+001900Y-003159X0138Y0000R000S1119354147
317GND              VIA        MD0079PA00X-001260Y+000315X0138Y0000R000S1119354147
317GND              VIA        MD0197PA00X+006890Y-016732X0315Y0000R000S1119354147
317GND              VIA        MD0079PA00X-001890Y-000945X0138Y0000R000S1119354147
317GND              VIA        MD0197PA00X-017126Y+010236X0315Y0000R000S1119354147
317GND              VIA        MD0197PA00X+003199Y-014400X0315Y0000R000S1119354147
317GND              VIA        MD0197PA00X+008539Y-009390X0315Y0000R000S1119354147
317GND              VIA        MD0197PA00X+014370Y+009252X0315Y0000R000S1119354147
317GND              VIA        MD0197PA00X-006465Y-008327X0315Y0000R000S1119354147
317GND              VIA        MD0197PA00X+008858Y+015256X0315Y0000R000S1119354147
317GND              VIA        MD0197PA00X+001047Y-009390X0315Y0000R000S1119354147
317GND              VIA        MD0079PA00X-002205Y+000630X0138Y0000R000S1119354147
317GND              VIA        MD0079PA00X+003150Y+000000X0138Y0000R000S1119354147
317GND              VIA        MD0118PA00X+008224Y-009035X0236Y0000R000S1119354147
317GND              VIA        MD0197PA00X-014764Y+004134X0315Y0000R000S1119354147
317GND              VIA        MD0197PA00X-014764Y+015256X0315Y0000R000S1119354147
317GND              VIA        MD0197PA00X-017126Y-007480X0315Y0000R000S1119354147
317GND              VIA        MD0197PA00X+015945Y+006299X0315Y0000R000S1119354147
317GND              VIA        MD0079PA00X+002205Y+003150X0138Y0000R000S1119354147
317GND              VIA        MD0197PA00X+001047Y-009035X0315Y0000R000S1119354147
317GND              VIA        MD0079PA00X-000315Y+001575X0138Y0000R000S1119354147
317GND              VIA        MD0118PA00X-007992Y+004764X0236Y0000R000S1119354147
317GND              VIA        MD0118PA00X+005827Y-005020X0236Y0000R000S1119354147
317GND              VIA        MD0197PA00X-006890Y+015256X0315Y0000R000S1119354147
317GND              VIA        MD0197PA00X-014764Y+007874X0315Y0000R000S1119354147
317GND              VIA        MD0118PA00X+002150Y-005689X0236Y0000R000S1119354147
317GND              VIA        MD0197PA00X-017126Y-009449X0315Y0000R000S1119354147
317GND              VIA        MD0197PA00X-004921Y-016732X0315Y0000R000S1119354147
317GND              VIA        MD0197PA00X-008858Y+015256X0315Y0000R000S1119354147
317GND              VIA        MD0197PA00X-014764Y+011417X0315Y0000R000S1119354147
317GND              VIA        MD0197PA00X-011496Y-015049X0315Y0000R000S1119354147
317GND              VIA        MD0197PA00X+017126Y+012205X0315Y0000R000S1119354147
317GND              VIA        MD0079PA00X-001260Y-000315X0138Y0000R000S1119354147
317GND              VIA        MD0197PA00X+015945Y+010236X0315Y0000R000S1119354147
317GND              VIA        MD0118PA00X+004272Y-005020X0236Y0000R000S1119354147
317GND              VIA        MD0197PA00X-013622Y-010512X0315Y0000R000S1119354147
317GND              VIA        MD0197PA00X+003248Y-015069X0315Y0000R000S1119354147
317GND              VIA        MD0079PA00X-004222Y+001762X0138Y0000R000S1119354147
317GND              VIA        MD0118PA00X-006260Y+001260X0236Y0000R000S1119354147
317GND              VIA        MD0197PA00X-013622Y-010866X0315Y0000R000S1119354147
317GND              VIA        MD0197PA00X+015945Y+012205X0315Y0000R000S1119354147
317GND              VIA        MD0197PA00X+009646Y-004528X0315Y0000R000S1119354147
317GND              VIA        MD0197PA00X+008539Y-008681X0315Y0000R000S1119354147
317GND              VIA        MD0197PA00X+011142Y-005482X0315Y0000R000S1119354147
317GND              VIA        MD0197PA00X-010827Y-016732X0315Y0000R000S1119354147
317GND              VIA        MD0197PA00X+004921Y+015256X0315Y0000R000S1119354147
317GND              VIA        MD0079PA00X+001270Y+001585X0138Y0000R000S1119354147
317GND              VIA        MD0197PA00X+017126Y-001575X0315Y0000R000S1119354147
317GND              VIA        MD0197PA00X+012795Y-015551X0315Y0000R000S1119354147
317GND              VIA        MD0197PA00X+017126Y-003543X0315Y0000R000S1119354147
317GND              VIA        MD0079PA00X-002835Y-002520X0138Y0000R000S1119354147
317GND              VIA        MD0079PA00X-003140Y+003140X0138Y0000R000S1119354147
317GND              VIA        MD0197PA00X-006465Y-009744X0315Y0000R000S1119354147
317GND              VIA        MD0118PA00X+000732Y-008169X0236Y0000R000S1119354147
317GND              VIA        MD0197PA00X+004134Y+014567X0315Y0000R000S1119354147
317GND              VIA        MD0197PA00X+015945Y+002362X0315Y0000R000S1119354147
317GND              VIA        MD0079PA00X-004222Y+002461X0138Y0000R000S1119354147
317GND              VIA        MD0079PA00X-001260Y-000945X0138Y0000R000S1119354147
317GND              VIA        MD0197PA00X+017126Y-011417X0315Y0000R000S1119354147
317GND              VIA        MD0197PA00X+017126Y-013386X0315Y0000R000S1119354147
317GND              VIA        MD0197PA00X-017126Y-005512X0315Y0000R000S1119354147
317GND              VIA        MD0197PA00X+010650Y-005984X0315Y0000R000S1119354147
317GND              VIA        MD0197PA00X+001047Y-008327X0315Y0000R000S1119354147
317GND              VIA        MD0197PA00X+012795Y+015256X0315Y0000R000S1119354147
317GND              VIA        MD0197PA00X-006465Y-007972X0315Y0000R000S1119354147
317GND              VIA        MD0079PA00X-003150Y+002520X0138Y0000R000S1119354147
317GND              VIA        MD0079PA00X-003150Y-002520X0138Y0000R000S1119354147
317GND              VIA        MD0118PA00X+008854Y-009035X0236Y0000R000S1119354147
317GND              VIA        MD0197PA00X-003937Y+012598X0315Y0000R000S1119354147
317GND              VIA        MD0197PA00X-000984Y+015256X0315Y0000R000S1119354147
317GND              VIA        MD0118PA00X-008354Y-007461X0236Y0000R000S1119354147
317GND              VIA        MD0197PA00X-017126Y-015354X0315Y0000R000S1119354147
317GND              VIA        MD0197PA00X+000000Y+012598X0315Y0000R000S1119354147
317GND              VIA        MD0197PA00X-017126Y+000394X0315Y0000R000S1119354147
317GND              VIA        MD0079PA00X+003150Y-000945X0138Y0000R000S1119354147
317GND              VIA        MD0197PA00X-011811Y+012598X0315Y0000R000S1119354147
317GND              VIA        MD0118PA00X-010402Y-006870X0236Y0000R000S1119354147
317GND              VIA        MD0118PA00X-007638Y+007697X0236Y0000R000S1119354147
317GND              VIA        MD0197PA00X-013799Y-006201X0315Y0000R000S1119354147
317GND              VIA        MD0079PA00X+000000Y+003150X0138Y0000R000S1119354147
317GND              VIA        MD0197PA00X-002864Y+008543X0315Y0000R000S1119354147
317GND              VIA        MD0079PA00X-002520Y-002520X0138Y0000R000S1119354147
317GND              VIA        MD0197PA00X-012795Y+016240X0315Y0000R000S1119354147
317GND              VIA        MD0079PA00X-001575Y-002205X0138Y0000R000S1119354147
317GND              VIA        MD0197PA00X+015945Y+014173X0315Y0000R000S1119354147
317GND              VIA        MD0079PA00X-003238Y+007653X0138Y0000R000S1119354147
317GND              VIA        MD0197PA00X-013799Y-007264X0315Y0000R000S1119354147
317GND              VIA        MD0197PA00X-006465Y-009390X0315Y0000R000S1119354147
317GND              VIA        MD0197PA00X+017126Y+002362X0315Y0000R000S1119354147
317GND              VIA        MD0118PA00X-005812Y-003420X0236Y0000R000S1119354147
317GND              VIA        MD0197PA00X-002539Y+009774X0315Y0000R000S1119354147
317GND              VIA        MD0197PA00X-017126Y-003543X0315Y0000R000S1119354147
317GND              VIA        MD0197PA00X-003937Y+014567X0315Y0000R000S1119354147
317GND              VIA        MD0197PA00X-013622Y-008130X0315Y0000R000S1119354147
317GND              VIA        MD0197PA00X+006272Y+004217X0315Y0000R000S1119354147
317GND              VIA        MD0118PA00X+003484Y-005020X0236Y0000R000S1119354147
317GND              VIA        MD0079PA00X-000620Y+001250X0138Y0000R000S1119354147
317GND              VIA        MD0079PA00X-000630Y+000315X0138Y0000R000S1119354147
317GND              VIA        MD0197PA00X+017126Y-007480X0315Y0000R000S1119354147
317GND              VIA        MD0118PA00X+011555Y-009252X0236Y0000R000S1119354147
317GND              VIA        MD0079PA00X+002835Y+000945X0138Y0000R000S1119354147
317GND              VIA        MD0197PA00X-017126Y+002362X0315Y0000R000S1119354147
317GND              VIA        MD0079PA00X-002835Y-001260X0138Y0000R000S1119354147
317GND              VIA        MD0079PA00X+000000Y+002520X0138Y0000R000S1119354147
317GND              VIA        MD0197PA00X-011811Y+014567X0315Y0000R000S1119354147
317GND              VIA        MD0197PA00X-014764Y-016732X0315Y0000R000S1119354147
317GND              VIA        MD0079PA00X-002835Y+001260X0138Y0000R000S1119354147
317GND              VIA        MD0197PA00X+010827Y-015551X0315Y0000R000S1119354147
317GND              VIA        MD0197PA00X+017126Y+008268X0315Y0000R000S1119354147
317GND              VIA        MD0197PA00X+008539Y-008327X0315Y0000R000S1119354147
317GND              VIA        MD0197PA00X-003248Y+009774X0315Y0000R000S1119354147
317GND              VIA        MD0197PA00X-013622Y-009547X0315Y0000R000S1119354147
317GND              VIA        MD0197PA00X-012274Y-014970X0315Y0000R000S1119354147
317GND              VIA        MD0197PA00X-004921Y+015256X0315Y0000R000S1119354147
317GND              VIA        MD0118PA00X+000732Y-009035X0236Y0000R000S1119354147
317GND              VIA        MD0197PA00X+002953Y+016240X0315Y0000R000S1119354147
317GND              VIA        MD0197PA00X+017126Y-005512X0315Y0000R000S1119354147
317GND              VIA        MD0197PA00X-004528Y-013189X0315Y0000R000S1119354147
317GND              VIA        MD0197PA00X+012008Y+014567X0315Y0000R000S1119354147
317GND              VIA        MD0079PA00X+001575Y-001890X0138Y0000R000S1119354147
317GND              VIA        MD0197PA00X+005217Y+008260X0315Y0000R000S1119354147
317GND              VIA        MD0197PA00X-004528Y+006693X0315Y0000R000S1119354147
317GND              VIA        MD0079PA00X+001260Y-000945X0138Y0000R000S1119354147
317GND              VIA        MD0118PA00X-007618Y+001260X0236Y0000R000S1119354147
317GND              VIA        MD0197PA00X+015945Y+015354X0315Y0000R000S1119354147
317GND              VIA        MD0118PA00X-001358Y+003760X0236Y0000R000S1119354147
317GND              VIA        MD0197PA00X-002953Y+015256X0315Y0000R000S1119354147
317GND              VIA        MD0118PA00X+008199Y+001065X0236Y0000R000S1119354147
317GND              VIA        MD0079PA00X+002525Y-001895X0138Y0000R000S1119354147
317GND              VIA        MD0079PA00X-001890Y-002205X0138Y0000R000S1119354147
317GND              VIA        MD0197PA00X-015945Y+015354X0315Y0000R000S1119354147
317GND              VIA        MD0118PA00X+004232Y+002067X0236Y0000R000S1119354147
317GND              VIA        MD0197PA00X-012303Y-014252X0315Y0000R000S1119354147
317GND              VIA        MD0118PA00X+005039Y-005020X0236Y0000R000S1119354147
317GND              VIA        MD0118PA00X+008854Y-008248X0236Y0000R000S1119354147
317GND              VIA        MD0079PA00X-001565Y+000935X0138Y0000R000S1119354147
317GND              VIA        MD0197PA00X+012795Y+016240X0315Y0000R000S1119354147
317GND              VIA        MD0197PA00X+015945Y-013386X0315Y0000R000S1119354147
317GND              VIA        MD0197PA00X+015945Y-009449X0315Y0000R000S1119354147
317GND              VIA        MD0197PA00X-002953Y-016732X0315Y0000R000S1119354147
317GND              VIA        MD0079PA00X-008140Y+009291X0138Y0000R000S1119354147
317GND              VIA        MD0197PA00X+000984Y-016732X0315Y0000R000S1119354147
317GND              VIA        MD0197PA00X-010827Y+015256X0315Y0000R000S1119354147
317GND              VIA        MD0079PA00X+000000Y+000000X0138Y0000R000S1119354147
317GND              VIA        MD0197PA00X-003957Y-014577X0315Y0000R000S1119354147
317GND              VIA        MD0079PA00X-001575Y-000945X0138Y0000R000S1119354147
317GND              VIA        MD0079PA00X-001575Y+001890X0138Y0000R000S1119354147
317GND              VIA        MD0079PA00X-002205Y-002520X0138Y0000R000S1119354147
317GND              VIA        MD0197PA00X+008539Y-009744X0315Y0000R000S1119354147
317GND              VIA        MD0197PA00X-012795Y+009449X0315Y0000R000S1119354147
317GND              VIA        MD0079PA00X-009449Y+007864X0138Y0000R000S1119354147
317GND              VIA        MD0197PA00X-012746Y+000413X0315Y0000R000S1119354147
317GND              VIA        MD0118PA00X-012431Y-000295X0236Y0000R000S1119354147
317GND              VIA        MD0197PA00X-015945Y+014173X0315Y0000R000S1119354147
317GND              VIA        MD0079PA00X+000000Y-000630X0138Y0000R000S1119354147
317GND              VIA        MD0118PA00X-005362Y-005689X0236Y0000R000S1119354147
317GND              VIA        MD0079PA00X-000945Y-001260X0138Y0000R000S1119354147
317GND              VIA        MD0197PA00X-012746Y+000059X0315Y0000R000S1119354147
317GND              VIA        MD0197PA00X-013799Y-005846X0315Y0000R000S1119354147
317GND              VIA        MD0118PA00X-008001Y-002945X0236Y0000R000S1119354147
317GND              VIA        MD0118PA00X-007047Y+001260X0236Y0000R000S1119354147
317GND              VIA        MD0197PA00X+002953Y-016732X0315Y0000R000S1119354147
317GND              VIA        MD0197PA00X-013622Y-008484X0315Y0000R000S1119354147
317GND              VIA        MD0197PA00X-017126Y+012205X0315Y0000R000S1119354147
317GND              VIA        MD0197PA00X+015945Y+000394X0315Y0000R000S1119354147
317GND              VIA        MD0197PA00X+015945Y-007480X0315Y0000R000S1119354147
317GND              VIA        MD0118PA00X-007421Y+005315X0236Y0000R000S1119354147
317GND              VIA        MD0118PA00X+005699Y-001093X0236Y0000R000S1119354147
317GND              VIA        MD0118PA00X-008642Y+007697X0236Y0000R000S1119354147
317GND              VIA        MD0079PA00X+000945Y-000630X0138Y0000R000S1119354147
317GND              VIA        MD0079PA00X-003150Y-002835X0138Y0000R000S1119354147
317GND              VIA        MD0079PA00X+001260Y-000315X0138Y0000R000S1119354147
317GND              VIA        MD0079PA00X+001880Y+003455X0138Y0000R000S1119354147
317GND              VIA        MD0197PA00X-012746Y-001358X0315Y0000R000S1119354147
317GND              VIA        MD0079PA00X+001890Y+000945X0138Y0000R000S1119354147
317GND              VIA        MD0197PA00X+004921Y+016240X0315Y0000R000S1119354147
317GND              VIA        MD0118PA00X-005472Y+001260X0236Y0000R000S1119354147
317GND              VIA        MD0197PA00X+008858Y-016732X0315Y0000R000S1119354147
317GND              VIA        MD0197PA00X-002185Y+009774X0315Y0000R000S1119354147
317GND              VIA        MD0197PA00X-012746Y-001004X0315Y0000R000S1119354147
317GND              VIA        MD0079PA00X-003150Y+000000X0138Y0000R000S1119354147
317GND              VIA        MD0079PA00X-001250Y-003159X0138Y0000R000S1119354147
317GND              VIA        MD0197PA00X-006496Y+006693X0315Y0000R000S1119354147
317GND              VIA        MD0079PA00X+000315Y-000945X0138Y0000R000S1119354147
317GND              VIA        MD0197PA00X-010827Y+016240X0315Y0000R000S1119354147
317GND              VIA        MD0197PA00X+011614Y-004528X0315Y0000R000S1119354147
317GND              VIA        MD0118PA00X-001181Y+005256X0236Y0000R000S1119354147
317GND              VIA        MD0197PA00X+001047Y-008681X0315Y0000R000S1119354147
317GND              VIA        MD0197PA00X+000984Y+015256X0315Y0000R000S1119354147
317GND              VIA        MD0197PA00X-013799Y-006909X0315Y0000R000S1119354147
317GND              VIA        MD0197PA00X+008071Y+012598X0315Y0000R000S1119354147
317GND              VIA        MD0118PA00X+004602Y-006870X0236Y0000R000S1119354147
317GND              VIA        MD0197PA00X+017126Y+004331X0315Y0000R000S1119354147
317GND              VIA        MD0079PA00X+000630Y+001575X0138Y0000R000S1119354147
317GND              VIA        MD0197PA00X-000984Y+016240X0315Y0000R000S1119354147
317GND              VIA        MD0118PA00X+011555Y-007657X0236Y0000R000S1119354147
317GND              VIA        MD0197PA00X+015945Y-005512X0315Y0000R000S1119354147
317GND              VIA        MD0118PA00X+001362Y-008248X0236Y0000R000S1119354147
317GND              VIA        MD0197PA00X+008858Y+016240X0315Y0000R000S1119354147
317GND              VIA        MD0197PA00X+008071Y+014567X0315Y0000R000S1119354147
317GND              VIA        MD0197PA00X-017126Y+006299X0315Y0000R000S1119354147
317GND              VIA        MD0079PA00X-001575Y-001575X0138Y0000R000S1119354147
317GND              VIA        MD0079PA00X+002520Y-000945X0138Y0000R000S1119354147
317GND              VIA        MD0197PA00X-006465Y-009035X0315Y0000R000S1119354147
317GND              VIA        MD0197PA00X-003219Y+008543X0315Y0000R000S1119354147
317GND              VIA        MD0197PA00X-017126Y+015354X0315Y0000R000S1119354147
317GND              VIA        MD0118PA00X+006650Y-007461X0236Y0000R000S1119354147
317GND              VIA        MD0197PA00X+014370Y+011220X0315Y0000R000S1119354147
317GND              VIA        MD0118PA00X+011555Y-008445X0236Y0000R000S1119354147
317GND              VIA        MD0197PA00X-007874Y+014567X0315Y0000R000S1119354147
317GND              VIA        MD0197PA00X+002953Y-013189X0315Y0000R000S1119354147
317GND              VIA        MD0197PA00X+015945Y-003543X0315Y0000R000S1119354147
317GND              VIA        MD0118PA00X-001693Y+004173X0236Y0000R000S1119354147
317GND              VIA        MD0197PA00X+017126Y-009449X0315Y0000R000S1119354147
317GND              VIA        MD0197PA00X-014764Y-015551X0315Y0000R000S1119354147
317GND              VIA        MD0118PA00X-010856Y-001870X0236Y0000R000S1119354147
317GND              VIA        MD0079PA00X+002844Y-003140X0138Y0000R000S1119354147
317GND              VIA        MD0197PA00X+001047Y-009744X0315Y0000R000S1119354147
317GND              VIA        MD0197PA00X+010827Y-016732X0315Y0000R000S1119354147
317GND              VIA        MD0197PA00X-006465Y-008681X0315Y0000R000S1119354147
317GND              VIA        MD0118PA00X-008002Y-003709X0236Y0000R000S1119354147
317GND              VIA        MD0197PA00X-017126Y-013386X0315Y0000R000S1119354147
317GND              VIA        MD0118PA00X-002890Y-006870X0236Y0000R000S1119354147
317GND              VIA        MD0118PA00X+005699Y-000207X0236Y0000R000S1119354147
317GND              VIA        MD0118PA00X-007018Y+002165X0236Y0000R000S1119354147
317GND              VIA        MD0197PA00X+001047Y-007972X0315Y0000R000S1119354147
317GND              VIA        MD0079PA00X+000000Y-001575X0138Y0000R000S1119354147
317GND              VIA        MD0118PA00X-013060Y-000295X0236Y0000R000S1119354147
317GND              VIA        MD0079PA00X+000955Y+000305X0138Y0000R000S1119354147
317GND              VIA        MD0118PA00X+001362Y-009035X0236Y0000R000S1119354147
317GND              VIA        MD0197PA00X+017126Y-015354X0315Y0000R000S1119354147
317GND              VIA        MD0197PA00X+015945Y-015354X0315Y0000R000S1119354147
317GND              VIA        MD0197PA00X+015945Y+008268X0315Y0000R000S1119354147
317GND              VIA        MD0079PA00X-000305Y-002844X0138Y0000R000S1119354147
317GND              VIA        MD0079PA00X+000640Y-002530X0138Y0000R000S1119354147
317GND              VIA        MD0197PA00X+014764Y-016732X0315Y0000R000S1119354147
317GND              VIA        MD0197PA00X-012746Y-000295X0315Y0000R000S1119354147
317GND              VIA        MD0197PA00X+010827Y+016240X0315Y0000R000S1119354147
317GND              VIA        MD0079PA00X-002835Y-000630X0138Y0000R000S1119354147
317GND              VIA        MD0197PA00X+000000Y+014567X0315Y0000R000S1119354147
317GND              VIA        MD0197PA00X+015945Y-001575X0315Y0000R000S1119354147
317GND              VIA        MD0118PA00X-006780Y-009035X0236Y0000R000S1119354147
317GND              VIA        MD0197PA00X+010016Y+002280X0315Y0000R000S1119354147
317GND              VIA        MD0197PA00X-005177Y-015236X0315Y0000R000S1119354147
317GND              VIA        MD0118PA00X-008809Y-002461X0236Y0000R000S1119354147
317GND              VIA        MD0197PA00X+015945Y-011417X0315Y0000R000S1119354147
317GND              VIA        MD0197PA00X-012795Y-016732X0315Y0000R000S1119354147
317GND              VIA        MD0197PA00X+006890Y+016240X0315Y0000R000S1119354147
317GND              VIA        MD0197PA00X-000984Y-016732X0315Y0000R000S1119354147
317GND              VIA        MD0197PA00X+017126Y+000394X0315Y0000R000S1119354147
317GND              VIA        MD0118PA00X-006150Y-009035X0236Y0000R000S1119354147
317GND              VIA        MD0079PA00X-001260Y+003150X0138Y0000R000S1119354147
317GND              VIA        MD0197PA00X+002953Y+015256X0315Y0000R000S1119354147
317GND              VIA        MD0197PA00X-017126Y-011417X0315Y0000R000S1119354147
317GND              VIA        MD0197PA00X-013858Y-004478X0315Y0000R000S1119354147
317GND              VIA        MD0079PA00X+001585Y-002510X0138Y0000R000S1119354147
317GND              VIA        MD0197PA00X+003937Y-015148X0315Y0000R000S1119354147
317GND              VIA        MD0197PA00X-017126Y-001575X0315Y0000R000S1119354147
317GND              VIA        MD0197PA00X-002953Y+016240X0315Y0000R000S1119354147
317GND              VIA        MD0118PA00X-013060Y-001083X0236Y0000R000S1119354147
317GND              VIA        MD0118PA00X-012431Y-001161X0236Y0000R000S1119354147
317GND              VIA        MD0197PA00X+010827Y+015256X0315Y0000R000S1119354147
317GND              VIA        MD0197PA00X-013622Y-008839X0315Y0000R000S1119354147
317GND              VIA        MD0197PA00X-017126Y+004331X0315Y0000R000S1119354147
317GND              VIA        MD0197PA00X-006890Y-016732X0315Y0000R000S1119354147
317GND              VIA        MD0197PA00X+006890Y+015256X0315Y0000R000S1119354147
317GND              VIA        MD0118PA00X+008224Y-008169X0236Y0000R000S1119354147
317GND              VIA        MD0197PA00X+014764Y-015551X0315Y0000R000S1119354147
317GND              VIA        MD0197PA00X+017126Y+015354X0315Y0000R000S1119354147
317GND              VIA        MD0197PA00X-013622Y-011575X0315Y0000R000S1119354147
317GND              VIA        MD0197PA00X+007094Y+005315X0315Y0000R000S1119354147
317GND              VIA        MD0197PA00X-014764Y+016240X0315Y0000R000S1119354147
317GND              VIA        MD0079PA00X+001781Y+007953X0138Y0000R000S1119354147
317GND              VIA        MD0197PA00X-013622Y-011220X0315Y0000R000S1119354147
317GND              VIA        MD0197PA00X-008858Y-016732X0315Y0000R000S1119354147
317GND              VIA        MD0079PA00X+000630Y-001585X0138Y0000R000S1119354147
317GND              VIA        MD0197PA00X+004921Y-016732X0315Y0000R000S1119354147
317GND              VIA        MD0197PA00X+012008Y+012598X0315Y0000R000S1119354147
317GND              VIA        MD0079PA00X-002205Y-002205X0138Y0000R000S1119354147
317GND              VIA        MD0079PA00X-000630Y-001575X0138Y0000R000S1119354147
317GND              VIA        MD0197PA00X+000984Y+016240X0315Y0000R000S1119354147
317GND              VIA        MD0197PA00X-017126Y+014173X0315Y0000R000S1119354147
317GND              VIA        MD0118PA00X+009642Y-005689X0236Y0000R000S1119354147
317GND              VIA        MD0197PA00X-013858Y-003642X0315Y0000R000S1119354147
317GND              VIA        MD0197PA00X-004921Y+016240X0315Y0000R000S1119354147
317GND              VIA        MD0118PA00X-006150Y-008248X0236Y0000R000S1119354147
317GND              VIA        MD0079PA00X-000945Y+002205X0138Y0000R000S1119354147
317GND              VIA        MD0118PA00X-000843Y-007461X0236Y0000R000S1119354147
317GND              VIA        MD0118PA00X-002677Y-012224X0236Y0000R000S1119354147
317GND              VIA        MD0079PA00X+003150Y+003465X0138Y0000R000S1119354147
317GND              VIA        MD0197PA00X-013858Y-004843X0315Y0000R000S1119354147
317GND              VIA        MD0079PA00X-000630Y-000315X0138Y0000R000S1119354147
317GND              VIA        MD0118PA00X-006780Y-008169X0236Y0000R000S1119354147
317GND              VIA        MD0079PA00X-002835Y-001890X0138Y0000R000S1119354147
317GND              VIA        MD0197PA00X+007096Y+008159X0315Y0000R000S1119354147
317GND              VIA        MD0197PA00X-017126Y+008268X0315Y0000R000S1119354147
317GND              VIA        MD0197PA00X+008539Y-009035X0315Y0000R000S1119354147
317GND              VIA        MD0197PA00X-012746Y-000650X0315Y0000R000S1119354147
317GND              VIA        MD0197PA00X+017126Y+014173X0315Y0000R000S1119354147
317GND              VIA        MD0079PA00X+002520Y+002205X0138Y0000R000S1119354147
317GND              VIA        MD0197PA00X-002156Y+008543X0315Y0000R000S1119354147
317GND              VIA        MD0079PA00X-003150Y-000630X0138Y0000R000S1119354147
317GND              VIA        MD0197PA00X-007874Y+012598X0315Y0000R000S1119354147
317GND              VIA        MD0079PA00X-002205Y-001260X0138Y0000R000S1119354147
317GND              VIA        MD0079PA00X+002205Y-000315X0138Y0000R000S1119354147
317GND              VIA        MD0197PA00X-012795Y+015256X0315Y0000R000S1119354147
317GND              VIA        MD0079PA00X-003465Y+000000X0138Y0000R000S1119354147
317GND              VIA        MD0079PA00X-002195Y-000010X0138Y0000R000S1119354147
317GND              VIA        MD0197PA00X-013799Y-006555X0315Y0000R000S1119354147
317GND              VIA        MD0079PA00X-003150Y-001260X0138Y0000R000S1119354147
317GND              VIA        MD0197PA00X+015945Y+004331X0315Y0000R000S1119354147
317GND              VIA        MD0118PA00X-002677Y-011437X0236Y0000R000S1119354147
317GND              VIA        MD0197PA00X-013622Y-009193X0315Y0000R000S1119354147
317GND              VIA        MD0197PA00X-002894Y+009774X0315Y0000R000S1119354147
317GND              VIA        MD0079PA00X+003150Y+002205X0138Y0000R000S1119354147
317GND              VIA        MD0197PA00X-013858Y-005197X0315Y0000R000S1119354147
317GND              VIA        MD0197PA00X-010764Y-013685X0315Y0000R000S1119354147
317GND              VIA        MD0079PA00X-003150Y-001890X0138Y0000R000S1119354147
317GND              VIA        MD0079PA00X-001890Y+002520X0138Y0000R000S1119354147
317GND              VIA        MD0197PA00X-002276Y-004642X0315Y0000R000S1119354147
317GND              VIA        MD0197PA00X+017126Y+010236X0315Y0000R000S1119354147
317GND              VIA        MD0197PA00X+008539Y-007972X0315Y0000R000S1119354147
317GND              VIA        MD0197PA00X-015945Y-015354X0315Y0000R000S1119354147
317IIC_SDA          VIA        MD0118PA00X-008157Y-006122X0236Y0000R000S1119354147
317IIC_SDA          VIA        MD0118PA00X+006847Y-006122X0236Y0000R000S1119354147
317IIC_SDA          VIA        MD0118PA00X-000646Y-006122X0236Y0000R000S1119354147
317IIC_SDA          VIA        MD0118PA00X-004390Y-003307X0236Y0000R000S1119354147
317IIC_SDA          VIA        MD0118PA00X-007815Y-005059X0236Y0000R000S1119354147
317IIC_SDA          VIA        MD0118PA00X+006432Y-004823X0236Y0000R000S1119354147
317IIC_SDA          VIA        MD0118PA00X-011053Y-003406X0236Y0000R000S1119354147
317IIC_SDA          VIA        MD0118PA00X-000630Y-004823X0236Y0000R000S1119354147
317NET-(INA_2-A0)   VIA        MD0118PA00X-000488Y-007435X0236Y0000R000S1119354147
317NET-(INA_3-A0)   VIA        MD0118PA00X+007004Y-007435X0236Y0000R000S1119354147
317NET-(INA_4-A0)   VIA        MD0118PA00X-008000Y-007435X0236Y0000R000S1119354147
317NET-(INA_1-A1)   VIA        MD0118PA00X-012194Y-001398X0236Y0000R000S1119354147
317NET-(INA_2-A1)   VIA        MD0118PA00X+000496Y-007933X0236Y0000R000S1119354147
317NET-(INA_3-A1)   VIA        MD0118PA00X+007988Y-007933X0236Y0000R000S1119354147
317NET-(INA_4-A1)   VIA        MD0118PA00X-007016Y-007933X0236Y0000R000S1119354147
317+5V              VIA        MD0197PA00X-000606Y-008878X0315Y0000R000S1119354147
317+5V              VIA        MD0118PA00X+007161Y-009035X0236Y0000R000S1119354147
317+5V              VIA        MD0197PA00X-008118Y-009665X0315Y0000R000S1119354147
317+5V              VIA        MD0118PA00X-000331Y-009035X0236Y0000R000S1119354147
317+5V              VIA        MD0197PA00X-000606Y-009272X0315Y0000R000S1119354147
317+5V              VIA        MD0197PA00X-011092Y-000059X0315Y0000R000S1119354147
317+5V              VIA        MD0197PA00X-001713Y+009764X0315Y0000R000S1119354147
317+5V              VIA        MD0197PA00X-011092Y-000453X0315Y0000R000S1119354147
317+5V              VIA        MD0197PA00X-001329Y+009764X0315Y0000R000S1119354147
317+5V              VIA        MD0197PA00X-011150Y+000276X0315Y0000R000S1119354147
317+5V              VIA        MD0197PA00X-000945Y+009764X0315Y0000R000S1119354147
317+5V              VIA        MD0197PA00X-000561Y+008553X0315Y0000R000S1119354147
317+5V              VIA        MD0197PA00X-000935Y+008553X0315Y0000R000S1119354147
317+5V              VIA        MD0197PA00X-000606Y-009665X0315Y0000R000S1119354147
317+5V              VIA        MD0197PA00X-001703Y+008553X0315Y0000R000S1119354147
317+5V              VIA        MD0197PA00X+006886Y-009272X0315Y0000R000S1119354147
317+5V              VIA        MD0197PA00X-008118Y-008878X0315Y0000R000S1119354147
317+5V              VIA        MD0118PA00X-007843Y-009035X0236Y0000R000S1119354147
317+5V              VIA        MD0197PA00X+006886Y-008878X0315Y0000R000S1119354147
317+5V              VIA        MD0197PA00X-000606Y-008484X0315Y0000R000S1119354147
317+5V              VIA        MD0197PA00X-011092Y-000846X0315Y0000R000S1119354147
317+5V              VIA        MD0197PA00X-001319Y+008553X0315Y0000R000S1119354147
317+5V              VIA        MD0197PA00X-008118Y-009272X0315Y0000R000S1119354147
317+5V              VIA        MD0197PA00X+006886Y-009665X0315Y0000R000S1119354147
317+5V              VIA        MD0118PA00X-011328Y-001043X0236Y0000R000S1119354147
317+5V              VIA        MD0197PA00X-000571Y+009764X0315Y0000R000S1119354147
317+5V              VIA        MD0197PA00X+006886Y-008484X0315Y0000R000S1119354147
317+5V              VIA        MD0197PA00X-008118Y-008484X0315Y0000R000S1119354147
317+5V              VIA        MD0118PA00X-011368Y-000295X0236Y0000R000S1119354147
317+5V              VIA        MD0118PA00X-015620Y+005472X0236Y0000R000S1119354147
317/1V_SENSE        VIA        MD0197PA00X-014635Y-000256X0315Y0000R000S1119354147
317/1V_SENSE        VIA        MD0197PA00X-014635Y+000177X0315Y0000R000S1119354147
317/1V_SENSE        VIA        MD0197PA00X-014635Y-000689X0315Y0000R000S1119354147
317/1V_SENSE        VIA        MD0197PA00X-014635Y-001122X0315Y0000R000S1119354147
317/1V_SENSE        VIA        MD0197PA00X-014635Y-001555X0315Y0000R000S1119354147
317/1V8_SENSE       VIA        MD0197PA00X+002937Y-009508X0315Y0000R000S1119354147
317/1V8_SENSE       VIA        MD0197PA00X+002937Y-007776X0315Y0000R000S1119354147
317/1V8_SENSE       VIA        MD0197PA00X+002937Y-008642X0315Y0000R000S1119354147
317/1V8_SENSE       VIA        MD0197PA00X+002937Y-008209X0315Y0000R000S1119354147
317/1V8_SENSE       VIA        MD0197PA00X+002937Y-009075X0315Y0000R000S1119354147
317/3V3_SENSE       VIA        MD0197PA00X+010429Y-009508X0315Y0000R000S1119354147
317/3V3_SENSE       VIA        MD0197PA00X+010429Y-007776X0315Y0000R000S1119354147
317/3V3_SENSE       VIA        MD0197PA00X+010429Y-008209X0315Y0000R000S1119354147
317/3V3_SENSE       VIA        MD0197PA00X+010429Y-009075X0315Y0000R000S1119354147
317/3V3_SENSE       VIA        MD0197PA00X+010429Y-008642X0315Y0000R000S1119354147
317/2V5_SENSE       VIA        MD0197PA00X-004575Y-007776X0315Y0000R000S1119354147
317/2V5_SENSE       VIA        MD0197PA00X-004575Y-008642X0315Y0000R000S1119354147
317/2V5_SENSE       VIA        MD0197PA00X-004575Y-008209X0315Y0000R000S1119354147
317/2V5_SENSE       VIA        MD0197PA00X-004575Y-009075X0315Y0000R000S1119354147
317/2V5_SENSE       VIA        MD0197PA00X-004575Y-009508X0315Y0000R000S1119354147
317+2.5V            VIA        MD0197PA00X-003984Y-010059X0315Y0000R000S1119354147
317+2.5V            VIA        MD0079PA00X-003150Y+000945X0138Y0000R000S1119354147
317+2.5V            VIA        MD0197PA00X-003984Y-010846X0315Y0000R000S1119354147
317+2.5V            VIA        MD0079PA00X-003543Y+000945X0138Y0000R000S1119354147
317+2.5V            VIA        MD0118PA00X-004220Y-010256X0236Y0000R000S1119354147
317+2.5V            VIA        MD0118PA00X-004220Y-010650X0236Y0000R000S1119354147
317+2.5V            VIA        MD0079PA00X-001890Y+003150X0138Y0000R000S1119354147
317+2.5V            VIA        MD0197PA00X-004457Y-010846X0315Y0000R000S1119354147
317+2.5V            VIA        MD0079PA00X-002205Y+001260X0138Y0000R000S1119354147
317+2.5V            VIA        MD0079PA00X-002835Y+002835X0138Y0000R000S1119354147
317+2.5V            VIA        MD0197PA00X-003984Y-010453X0315Y0000R000S1119354147
317+2.5V            VIA        MD0079PA00X-002205Y+001890X0138Y0000R000S1119354147
317+2.5V            VIA        MD0079PA00X-003465Y+001575X0138Y0000R000S1119354147
317+1.8V            VIA        MD0197PA00X+003527Y-010453X0315Y0000R000S1119354147
317+1.8V            VIA        MD0079PA00X-000945Y+000315X0138Y0000R000S1119354147
317+1.8V            VIA        MD0079PA00X+000630Y+000315X0138Y0000R000S1119354147
317+1.8V            VIA        MD0079PA00X-000315Y-000315X0138Y0000R000S1119354147
317+1.8V            VIA        MD0079PA00X+000315Y+000315X0138Y0000R000S1119354147
317+1.8V            VIA        MD0197PA00X+003055Y-010846X0315Y0000R000S1119354147
317+1.8V            VIA        MD0079PA00X-001890Y+000315X0138Y0000R000S1119354147
317+1.8V            VIA        MD0079PA00X-000315Y+000315X0138Y0000R000S1119354147
317+1.8V            VIA        MD0118PA00X+003291Y-010256X0236Y0000R000S1119354147
317+1.8V            VIA        MD0079PA00X-003795Y-000157X0138Y0000R000S1119354147
317+1.8V            VIA        MD0079PA00X+000945Y+000000X0138Y0000R000S1119354147
317+1.8V            VIA        MD0197PA00X+003527Y-010059X0315Y0000R000S1119354147
317+1.8V            VIA        MD0118PA00X+003291Y-010650X0236Y0000R000S1119354147
317+1.8V            VIA        MD0197PA00X+003527Y-010846X0315Y0000R000S1119354147
317VCCINT           VIA        MD0079PA00X+001270Y-001250X0138Y0000R000S1119354147
317VCCINT           VIA        MD0197PA00X-004724Y-000886X0315Y0000R000S1119354147
317VCCINT           VIA        MD0118PA00X-014990Y+001319X0236Y0000R000S1119354147
317VCCINT           VIA        MD0197PA00X-012378Y-005685X0315Y0000R000S1119354147
317VCCINT           VIA        MD0197PA00X-008996Y+001004X0315Y0000R000S1119354147
317VCCINT           VIA        MD0079PA00X+000630Y-001260X0138Y0000R000S1119354147
317VCCINT           VIA        MD0197PA00X-012717Y-006378X0315Y0000R000S1119354147
317VCCINT           VIA        MD0079PA00X-000630Y-001260X0138Y0000R000S1119354147
317VCCINT           VIA        MD0079PA00X+000000Y-000315X0138Y0000R000S1119354147
317VCCINT           VIA        MD0197PA00X-008996Y+000630X0315Y0000R000S1119354147
317VCCINT           VIA        MD0197PA00X-010423Y-015089X0315Y0000R000S1119354147
317VCCINT           VIA        MD0079PA00X+000315Y-000315X0138Y0000R000S1119354147
317VCCINT           VIA        MD0197PA00X-012717Y-011398X0315Y0000R000S1119354147
317VCCINT           VIA        MD0197PA00X-012717Y-009390X0315Y0000R000S1119354147
317VCCINT           VIA        MD0197PA00X-012717Y-007126X0315Y0000R000S1119354147
317VCCINT           VIA        MD0197PA00X-012717Y-010650X0315Y0000R000S1119354147
317VCCINT           VIA        MD0079PA00X+000630Y-000630X0138Y0000R000S1119354147
317VCCINT           VIA        MD0197PA00X-011138Y-004531X0315Y0000R000S1119354147
317VCCINT           VIA        MD0197PA00X-012717Y-006752X0315Y0000R000S1119354147
317VCCINT           VIA        MD0118PA00X-014990Y+000925X0236Y0000R000S1119354147
317VCCINT           VIA        MD0079PA00X+000945Y-000945X0138Y0000R000S1119354147
317VCCINT           VIA        MD0197PA00X-008996Y+001378X0315Y0000R000S1119354147
317VCCINT           VIA        MD0197PA00X-015226Y+001122X0315Y0000R000S1119354147
317VCCINT           VIA        MD0079PA00X-000945Y-000315X0138Y0000R000S1119354147
317VCCINT           VIA        MD0197PA00X-012717Y-009016X0315Y0000R000S1119354147
317VCCINT           VIA        MD0197PA00X-012717Y-008268X0315Y0000R000S1119354147
317VCCINT           VIA        MD0197PA00X-008996Y+000256X0315Y0000R000S1119354147
317VCCINT           VIA        MD0079PA00X+000000Y-001260X0138Y0000R000S1119354147
317VCCINT           VIA        MD0079PA00X+000315Y-001575X0138Y0000R000S1119354147
317VCCINT           VIA        MD0197PA00X-004350Y-000492X0315Y0000R000S1119354147
317VCCINT           VIA        MD0079PA00X-000945Y-001575X0138Y0000R000S1119354147
317VCCINT           VIA        MD0197PA00X-012717Y-011772X0315Y0000R000S1119354147
317VCCINT           VIA        MD0197PA00X-004350Y-000886X0315Y0000R000S1119354147
317VCCINT           VIA        MD0079PA00X-001260Y-000630X0138Y0000R000S1119354147
317VCCINT           VIA        MD0079PA00X+001270Y-000620X0138Y0000R000S1119354147
317VCCINT           VIA        MD0079PA00X-000315Y-001575X0138Y0000R000S1119354147
317VCCINT           VIA        MD0197PA00X-015226Y+001516X0315Y0000R000S1119354147
317VCCINT           VIA        MD0118PA00X-004350Y-001339X0236Y0000R000S1119354147
317VCCINT           VIA        MD0197PA00X-014753Y+001516X0315Y0000R000S1119354147
317VCCINT           VIA        MD0197PA00X-010935Y-014577X0315Y0000R000S1119354147
317VCCINT           VIA        MD0197PA00X-011138Y-004935X0315Y0000R000S1119354147
317VCCINT           VIA        MD0197PA00X-010674Y-014838X0315Y0000R000S1119354147
317VCCINT           VIA        MD0197PA00X-011886Y-005685X0315Y0000R000S1119354147
317VCCINT           VIA        MD0079PA00X-000945Y-000945X0138Y0000R000S1119354147
317VCCINT           VIA        MD0197PA00X-012717Y-008642X0315Y0000R000S1119354147
317VCCINT           VIA        MD0197PA00X-004724Y-000492X0315Y0000R000S1119354147
317VCCINT           VIA        MD0197PA00X-012717Y-011024X0315Y0000R000S1119354147
317VCCINT           VIA        MD0197PA00X-012717Y-006004X0315Y0000R000S1119354147
317VCCINT           VIA        MD0079PA00X-001260Y-001260X0138Y0000R000S1119354147
317VCCINT           VIA        MD0197PA00X-015226Y+000728X0315Y0000R000S1119354147
317VCCINT           VIA        MD0079PA00X+000945Y-001575X0138Y0000R000S1119354147
317SYS_CLK_P        VIA        MD0079PA00X-002205Y+002205X0138Y0000R000S1119354147
317SYS_CLK_P        VIA        MD0079PA00X-004222Y+001998X0138Y0000R000S1119354147
317SYS_CLK_N        VIA        MD0079PA00X-004222Y+002234X0138Y0000R000S1119354147
317SYS_CLK_N        VIA        MD0079PA00X-002520Y+002205X0138Y0000R000S1119354147
317SPI_1_MOSI_IO0   VIA        MD0079PA00X+000945Y+003465X0138Y0000R000S1119354147
317SPI_1_MOSI_IO0   VIA        MD0079PA00X+004924Y+003349X0138Y0000R000S1119354147
317SPI_1_SCK        VIA        MD0079PA00X+005153Y+003548X0138Y0000R000S1119354147
317SPI_1_SCK        VIA        MD0079PA00X+000000Y+001575X0138Y0000R000S1119354147
317SPI_1_IO3        VIA        MD0079PA00X+004528Y+002953X0138Y0000R000S1119354147
317SPI_1_IO3        VIA        MD0118PA00X+007472Y-000039X0236Y0000R000S1119354147
317SPI_1_IO3        VIA        MD0079PA00X+001260Y+003150X0138Y0000R000S1119354147
317SPI_1_IO3        VIA        MD0118PA00X+011272Y+000768X0236Y0000R000S1119354147
317SPI_1_IO2        VIA        MD0079PA00X+000945Y+003150X0138Y0000R000S1119354147
317SPI_1_IO2        VIA        MD0079PA00X+004792Y+003217X0138Y0000R000S1119354147
317SPI_1_MISO_IO1   VIA        MD0079PA00X+004660Y+003085X0138Y0000R000S1119354147
317SPI_1_MISO_IO1   VIA        MD0079PA00X+001250Y+003455X0138Y0000R000S1119354147
317CAN_L            VIA        MD0118PA00X+012333Y+007982X0236Y0000R000S1119354147
317CAN_H            VIA        MD0118PA00X+011427Y+008022X0236Y0000R000S1119354147
317SPI_SCK_N        VIA        MD0079PA00X-007800Y+004956X0138Y0000R000S1119354147
317SPI_SCK_N        VIA        MD0118PA00X-008307Y+007697X0236Y0000R000S1119354147
317SPI_SCK_P        VIA        MD0118PA00X-007972Y+007697X0236Y0000R000S1119354147
317SPI_SCK_P        VIA        MD0079PA00X-007633Y+005123X0138Y0000R000S1119354147
317JTAG_TMS         VIA        MD0079PA00X+001260Y+000630X0138Y0000R000S1119354147
317JTAG_TCK         VIA        MD0079PA00X+002205Y+000000X0138Y0000R000S1119354147
317JTAG_TDI         VIA        MD0079PA00X+001250Y+000325X0138Y0000R000S1119354147
317JTAG_TDO         VIA        MD0079PA00X+001880Y+000325X0138Y0000R000S1119354147
317FPGA_M1          VIA        MD0118PA00X+004065Y-000630X0236Y0000R000S1119354147
317FPGA_M1          VIA        MD0079PA00X+001890Y-000630X0138Y0000R000S1119354147
317FPGA_M2          VIA        MD0118PA00X+004065Y-000984X0236Y0000R000S1119354147
317FPGA_M2          VIA        MD0079PA00X+001890Y-000945X0138Y0000R000S1119354147
317FPAG_M0          VIA        MD0118PA00X+004065Y-000039X0236Y0000R000S1119354147
317FPAG_M0          VIA        MD0079PA00X+001890Y-000315X0138Y0000R000S1119354147
317AGND_1V          VIA        MD0197PA00X-011364Y+004154X0315Y0000R000S1119354147
317AGND_1V          VIA        MD0197PA00X-010183Y+002972X0315Y0000R000S1119354147
317AGND_1V          VIA        MD0197PA00X-010773Y+001594X0315Y0000R000S1119354147
317AGND_1V          VIA        MD0197PA00X-010773Y+002972X0315Y0000R000S1119354147
317AGND_1V          VIA        MD0197PA00X-010773Y+002264X0315Y0000R000S1119354147
317AGND_1V          VIA        MD0197PA00X-011364Y+005925X0315Y0000R000S1119354147
317AGND_1V          VIA        MD0197PA00X-011364Y+003563X0315Y0000R000S1119354147
317AGND_1V          VIA        MD0197PA00X-011364Y+005335X0315Y0000R000S1119354147
317AGND_1V          VIA        MD0197PA00X-011324Y+001594X0315Y0000R000S1119354147
317AGND_1V          VIA        MD0118PA00X-014714Y+003095X0236Y0000R000S1119354147
317AGND_1V          VIA        MD0197PA00X-012116Y+002972X0315Y0000R000S1119354147
317AGND_1V          VIA        MD0118PA00X-013415Y+002303X0236Y0000R000S1119354147
317AGND_1V          VIA        MD0197PA00X-010183Y+001594X0315Y0000R000S1119354147
317AGND_1V          VIA        MD0197PA00X-011364Y+002972X0315Y0000R000S1119354147
317AGND_1V          VIA        MD0197PA00X-012116Y+003563X0315Y0000R000S1119354147
317AGND_1V          VIA        MD0197PA00X-010183Y+002264X0315Y0000R000S1119354147
317AGND_1V          VIA        MD0197PA00X-012116Y+002264X0315Y0000R000S1119354147
317AGND_1V          VIA        MD0197PA00X-011364Y+004744X0315Y0000R000S1119354147
317AGND_1V8         VIA        MD0197PA00X-000335Y-012894X0315Y0000R000S1119354147
317AGND_1V8         VIA        MD0197PA00X-000335Y-012303X0315Y0000R000S1119354147
317AGND_1V8         VIA        MD0197PA00X-000925Y-010925X0315Y0000R000S1119354147
317AGND_1V8         VIA        MD0197PA00X-000925Y-011594X0315Y0000R000S1119354147
317AGND_1V8         VIA        MD0197PA00X-000925Y-012303X0315Y0000R000S1119354147
317AGND_1V8         VIA        MD0197PA00X-000335Y-013484X0315Y0000R000S1119354147
317AGND_1V8         VIA        MD0118PA00X+001716Y-011634X0236Y0000R000S1119354147
317AGND_1V8         VIA        MD0197PA00X-000374Y-010925X0315Y0000R000S1119354147
317AGND_1V8         VIA        MD0197PA00X-000335Y-014665X0315Y0000R000S1119354147
317AGND_1V8         VIA        MD0118PA00X+003016Y-012426X0236Y0000R000S1119354147
317AGND_1V8         VIA        MD0197PA00X-001516Y-012303X0315Y0000R000S1119354147
317AGND_1V8         VIA        MD0197PA00X+000417Y-012303X0315Y0000R000S1119354147
317AGND_1V8         VIA        MD0197PA00X-000335Y-015256X0315Y0000R000S1119354147
317AGND_1V8         VIA        MD0197PA00X+000417Y-011594X0315Y0000R000S1119354147
317AGND_1V8         VIA        MD0197PA00X-001516Y-011594X0315Y0000R000S1119354147
317AGND_1V8         VIA        MD0197PA00X+000417Y-012894X0315Y0000R000S1119354147
317AGND_1V8         VIA        MD0197PA00X-000335Y-014075X0315Y0000R000S1119354147
317AGND_1V8         VIA        MD0197PA00X-001516Y-010925X0315Y0000R000S1119354147
317AGND_3V3         VIA        MD0197PA00X+007158Y-013484X0315Y0000R000S1119354147
317AGND_3V3         VIA        MD0197PA00X+005977Y-010925X0315Y0000R000S1119354147
317AGND_3V3         VIA        MD0197PA00X+006567Y-011594X0315Y0000R000S1119354147
317AGND_3V3         VIA        MD0197PA00X+007158Y-014075X0315Y0000R000S1119354147
317AGND_3V3         VIA        MD0118PA00X+009209Y-011634X0236Y0000R000S1119354147
317AGND_3V3         VIA        MD0197PA00X+007910Y-011594X0315Y0000R000S1119354147
317AGND_3V3         VIA        MD0118PA00X+010508Y-012426X0236Y0000R000S1119354147
317AGND_3V3         VIA        MD0197PA00X+007910Y-012303X0315Y0000R000S1119354147
317AGND_3V3         VIA        MD0197PA00X+005977Y-011594X0315Y0000R000S1119354147
317AGND_3V3         VIA        MD0197PA00X+007158Y-012303X0315Y0000R000S1119354147
317AGND_3V3         VIA        MD0197PA00X+007157Y-014535X0315Y0000R000S1119354147
317AGND_3V3         VIA        MD0197PA00X+007158Y-012894X0315Y0000R000S1119354147
317AGND_3V3         VIA        MD0197PA00X+007910Y-012894X0315Y0000R000S1119354147
317AGND_3V3         VIA        MD0197PA00X+006567Y-010925X0315Y0000R000S1119354147
317AGND_3V3         VIA        MD0197PA00X+005977Y-012303X0315Y0000R000S1119354147
317AGND_3V3         VIA        MD0197PA00X+007118Y-010925X0315Y0000R000S1119354147
317AGND_3V3         VIA        MD0197PA00X+006567Y-012303X0315Y0000R000S1119354147
317AGND_2V5         VIA        MD0197PA00X-007846Y-014665X0315Y0000R000S1119354147
317AGND_2V5         VIA        MD0197PA00X-007846Y-015256X0315Y0000R000S1119354147
317AGND_2V5         VIA        MD0197PA00X-007882Y-011031X0315Y0000R000S1119354147
317AGND_2V5         VIA        MD0197PA00X-008437Y-011594X0315Y0000R000S1119354147
317AGND_2V5         VIA        MD0197PA00X-007846Y-014075X0315Y0000R000S1119354147
317AGND_2V5         VIA        MD0118PA00X-005795Y-011634X0236Y0000R000S1119354147
317AGND_2V5         VIA        MD0197PA00X-007846Y-013484X0315Y0000R000S1119354147
317AGND_2V5         VIA        MD0197PA00X-008437Y-012303X0315Y0000R000S1119354147
317AGND_2V5         VIA        MD0197PA00X-007094Y-012303X0315Y0000R000S1119354147
317AGND_2V5         VIA        MD0197PA00X-009027Y-012303X0315Y0000R000S1119354147
317AGND_2V5         VIA        MD0197PA00X-007846Y-012894X0315Y0000R000S1119354147
317AGND_2V5         VIA        MD0118PA00X-004496Y-012426X0236Y0000R000S1119354147
317AGND_2V5         VIA        MD0197PA00X-009024Y-011031X0315Y0000R000S1119354147
317AGND_2V5         VIA        MD0197PA00X-007094Y-012894X0315Y0000R000S1119354147
317AGND_2V5         VIA        MD0197PA00X-008433Y-011031X0315Y0000R000S1119354147
317AGND_2V5         VIA        MD0197PA00X-007094Y-011594X0315Y0000R000S1119354147
317AGND_2V5         VIA        MD0197PA00X-007846Y-012303X0315Y0000R000S1119354147
317AGND_2V5         VIA        MD0197PA00X-009027Y-011594X0315Y0000R000S1119354147
317-RT{SLASH}CLK)   VIA        MD0118PA00X+003016Y-011673X0236Y0000R000S1119354147
317-RT{SLASH}CLK)   VIA        MD0118PA00X+001713Y-011280X0236Y0000R000S1119354147
317SLASH}CLK)#1     VIA        MD0118PA00X+010508Y-011673X0236Y0000R000S1119354147
317SLASH}CLK)#1     VIA        MD0118PA00X+009205Y-011280X0236Y0000R000S1119354147
317NET-(JP1-C)      VIA        MD0118PA00X-010305Y+000453X0236Y0000R000S1119354147
317NET-(JP3-C)      VIA        MD0118PA00X+006098Y-009783X0236Y0000R000S1119354147
317IIC_SCL_OBC      VIA        MD0118PA00X-007953Y-001555X0236Y0000R000S1119354147
317IIC_SCL_OBC      VIA        MD0118PA00X+003091Y+005000X0236Y0000R000S1119354147
317IIC_SCL_OBC      VIA        MD0118PA00X-007953Y+002146X0236Y0000R000S1119354147
317IIC_SDA_OBC      VIA        MD0118PA00X+003898Y+004980X0236Y0000R000S1119354147
317IIC_SDA_OBC      VIA        MD0118PA00X-008327Y+002146X0236Y0000R000S1119354147
317IIC_SDA_OBC      VIA        MD0118PA00X-008327Y-001555X0236Y0000R000S1119354147
317I2C_RESET        VIA        MD0118PA00X-007210Y-003893X0236Y0000R000S1119354147
317I2C_RESET        VIA        MD0118PA00X-006614Y-002146X0236Y0000R000S1119354147
317FPGA_INIT        VIA        MD0079PA00X+001575Y+000000X0138Y0000R000S1119354147
317FPGA_INIT        VIA        MD0079PA00X-003610Y+000472X0138Y0000R000S1119354147
317FPGA_PROGB       VIA        MD0079PA00X-003740Y+000319X0138Y0000R000S1119354147
317FPGA_PROGB       VIA        MD0079PA00X+000315Y+000000X0138Y0000R000S1119354147
3171V8_VOLTAGE_EN   VIA        MD0118PA00X-013415Y+002657X0236Y0000R000S1119354147
3171V8_VOLTAGE_EN   VIA        MD0118PA00X-004114Y-004803X0236Y0000R000S1119354147
3171V8_VOLTAGE_EN   VIA        MD0118PA00X-006417Y-004173X0236Y0000R000S1119354147
3171V8_VOLTAGE_EN   VIA        MD0118PA00X-003504Y-006260X0236Y0000R000S1119354147
3173V3_VOLTAGE_EN   VIA        MD0118PA00X-006703Y-004448X0236Y0000R000S1119354147
3173V3_VOLTAGE_EN   VIA        MD0118PA00X+004134Y-016250X0236Y0000R000S1119354147
3173V3_VOLTAGE_EN   VIA        MD0118PA00X-006427Y-011988X0236Y0000R000S1119354147
3172V5_VOLTAGE_EN   VIA        MD0118PA00X-008047Y-004307X0236Y0000R000S1119354147
3172V5_VOLTAGE_EN   VIA        MD0118PA00X-010207Y-004862X0236Y0000R000S1119354147
317CONN_3           VIA        MD0118PA00X+004503Y+007446X0236Y0000R000S1119354147
317CONN_4           VIA        MD0118PA00X+004833Y+007854X0236Y0000R000S1119354147
317CONN_5           VIA        MD0118PA00X+004090Y+008223X0236Y0000R000S1119354147
317CONN_6           VIA        MD0118PA00X+003219Y+008307X0236Y0000R000S1119354147
317CONN_7           VIA        MD0118PA00X-000482Y+007402X0236Y0000R000S1119354147
317CONN_8           VIA        MD0118PA00X-000768Y+007116X0236Y0000R000S1119354147
317CONN_9           VIA        MD0118PA00X-001024Y+006831X0236Y0000R000S1119354147
317CONN_10          VIA        MD0118PA00X-001250Y+006516X0236Y0000R000S1119354147
317CONN_2           VIA        MD0118PA00X+003986Y+006437X0236Y0000R000S1119354147
317CONN_1           VIA        MD0118PA00X+003588Y+007023X0236Y0000R000S1119354147
317NET-(JP2-C)      VIA        MD0118PA00X-001394Y-009783X0236Y0000R000S1119354147
317NET-(JP4-C)      VIA        MD0118PA00X-008906Y-009783X0236Y0000R000S1119354147
317SLASH}CLK)#2     VIA        MD0118PA00X-013411Y+001949X0236Y0000R000S1119354147
317SLASH}CLK)#2     VIA        MD0118PA00X-014714Y+002343X0236Y0000R000S1119354147
317SLASH}CLK)#3     VIA        MD0118PA00X-005799Y-011279X0236Y0000R000S1119354147
317SLASH}CLK)#3     VIA        MD0118PA00X-004496Y-011673X0236Y0000R000S1119354147
3173V3_PWRGD        VIA        MD0118PA00X+008563Y-011988X0236Y0000R000S1119354147
3173V3_PWRGD        VIA        MD0118PA00X-003260Y-004449X0236Y0000R000S1119354147
327+5V              C3    -1          A01X+007335Y-008642X0394Y0571R000S2
327GND              C3    -2          A01X+008083Y-008642X0394Y0571R000S2
327GND              NT5   -1          A01X-012458Y+001420X0315Y0000R315S3
327AGND_1V          NT5   -2          A01X-012180Y+001698X0315Y0000R315S3
327AGND_1V          R2    -1          A01X-014714Y+002746X0404Y0551R090S2
327SLASH}CLK)#2     R2    -2          A01X-014714Y+002028X0404Y0551R090S2
327ET-(INA_2-IN+)   C22   -1          A01X+002244Y-009429X0394Y0571R180S2
327GND              C22   -2          A01X+001496Y-009429X0394Y0571R180S2
327ET-(INA_4-IN+)   R12   -1          A01X-005764Y-007098X0394Y1339R270S2
327/2V5_SENSE       R12   -2          A01X-005764Y-006508X0394Y1339R270S2
327ET-(INA_2-IN+)   R10   -1          A01X+001756Y-007102X0394Y1339R270S2
327/1V8_SENSE       R10   -2          A01X+001756Y-006512X0394Y1339R270S2
327+3.3V            C81   -1          A01X-007726Y-003474X0181Y0157R180S2
327GND              C81   -2          A01X-007978Y-003474X0181Y0157R180S2
317+3.3V            J2    -1    D0394PA00X+013659Y+003028X0669Y0669R180S0
317GND              J2    -2    D0394PA00X+013659Y+004028X0669Y0669R180S0
317JTAG_TCK         J2    -3    D0394PA00X+013659Y+005028X0669Y0669R180S0
317JTAG_TDO         J2    -4    D0394PA00X+013659Y+006028X0669Y0669R180S0
317JTAG_TDI         J2    -5    D0394PA00X+013659Y+007028X0669Y0669R180S0
317JTAG_TMS         J2    -6    D0394PA00X+013659Y+008028X0669Y0669R180S0
327SPI_MISO_IO1_P   U9    -1          A01X-003100Y+007820X0118Y0118R180S2
327SPI_MISO_IO1_N   U9    -2          A01X-003376Y+007820X0118Y0118R180S2
327GND              U9    -3          A01X-003238Y+007485X0118Y0118R180S2
317GND              H4    -1    D1496PA00X-013780Y+013307X2283Y0000R000S0
327AGND_1V          R1    -1          A01X-009745Y-000217X0404Y0551R180S2
327NET-(U2-VADJ)    R1    -2          A01X-010463Y-000217X0404Y0551R180S2
327IIC_SDA_OBC      R19   -1          A01X+005238Y+006276X0404Y0551R045S2
327+3.3V            R19   -2          A01X+005746Y+005768X0404Y0551R045S2
317GND              J1    -1    D0394PA00X-012638Y+010591X0669Y0669R270S0
317GND              J1    -2    D0394PA00X-012638Y+011591X0669Y0669R270S0
317SPI_MOSI_IO0_N   J1    -3    D0394PA00X-011638Y+010591X0669Y0669R270S0
317NET-(J1-PIN_4)   J1    -4    D0394PA00X-011638Y+011591X0669Y0669R270S0
317SPI_MOSI_IO0_P   J1    -5    D0394PA00X-010638Y+010591X0669Y0669R270S0
317NET-(J1-PIN_6)   J1    -6    D0394PA00X-010638Y+011591X0669Y0669R270S0
317GND              J1    -7    D0394PA00X-009638Y+010591X0669Y0669R270S0
317GND              J1    -8    D0394PA00X-009638Y+011591X0669Y0669R270S0
317SPI_SCK_N        J1    -9    D0394PA00X-008638Y+010591X0669Y0669R270S0
317GND              J1    -10   D0394PA00X-008638Y+011591X0669Y0669R270S0
317SPI_SCK_P        J1    -11   D0394PA00X-007638Y+010591X0669Y0669R270S0
317GND              J1    -12   D0394PA00X-007638Y+011591X0669Y0669R270S0
317GND              J1    -13   D0394PA00X-006638Y+010591X0669Y0669R270S0
317GND              J1    -14   D0394PA00X-006638Y+011591X0669Y0669R270S0
317SPI_MISO_IO1_N   J1    -15   D0394PA00X-005638Y+010591X0669Y0669R270S0
317ET-(J1-PIN_16)   J1    -16   D0394PA00X-005638Y+011591X0669Y0669R270S0
317SPI_MISO_IO1_P   J1    -17   D0394PA00X-004638Y+010591X0669Y0669R270S0
317ET-(J1-PIN_18)   J1    -18   D0394PA00X-004638Y+011591X0669Y0669R270S0
317GND              J1    -19   D0394PA00X-003638Y+010591X0669Y0669R270S0
317+5V_UNFUSED      J1    -20   D0394PA00X-003638Y+011591X0669Y0669R270S0
317GND              J1    -21   D0394PA00X-002638Y+010591X0669Y0669R270S0
317+5V_UNFUSED      J1    -22   D0394PA00X-002638Y+011591X0669Y0669R270S0
317+5V_UNFUSED      J1    -23   D0394PA00X-001638Y+010591X0669Y0669R270S0
317GND              J1    -24   D0394PA00X-001638Y+011591X0669Y0669R270S0
317+5V_UNFUSED      J1    -25   D0394PA00X-000638Y+010591X0669Y0669R270S0
317GND              J1    -26   D0394PA00X-000638Y+011591X0669Y0669R270S0
317+5V_UNFUSED      J1    -27   D0394PA00X+000362Y+010591X0669Y0669R270S0
317GND              J1    -28   D0394PA00X+000362Y+011591X0669Y0669R270S0
317+5V_UNFUSED      J1    -29   D0394PA00X+001362Y+010591X0669Y0669R270S0
317GND              J1    -30   D0394PA00X+001362Y+011591X0669Y0669R270S0
317GND              J1    -31   D0394PA00X+002362Y+010591X0669Y0669R270S0
317+5V_UNFUSED      J1    -32   D0394PA00X+002362Y+011591X0669Y0669R270S0
317GND              J1    -33   D0394PA00X+003362Y+010591X0669Y0669R270S0
317+5V_UNFUSED      J1    -34   D0394PA00X+003362Y+011591X0669Y0669R270S0
317SPI_CS_N         J1    -35   D0394PA00X+004362Y+010591X0669Y0669R270S0
317ET-(J1-PIN_36)   J1    -36   D0394PA00X+004362Y+011591X0669Y0669R270S0
317SPI_CS_P         J1    -37   D0394PA00X+005362Y+010591X0669Y0669R270S0
317ET-(J1-PIN_38)   J1    -38   D0394PA00X+005362Y+011591X0669Y0669R270S0
317GND              J1    -39   D0394PA00X+006362Y+010591X0669Y0669R270S0
317GND              J1    -40   D0394PA00X+006362Y+011591X0669Y0669R270S0
317IIC_SCL_OBC      J1    -41   D0394PA00X+007362Y+010591X0669Y0669R270S0
317IIC_SCL_OBC      J1    -42   D0394PA00X+007362Y+011591X0669Y0669R270S0
317IIC_SDA_OBC      J1    -43   D0394PA00X+008362Y+010591X0669Y0669R270S0
317IIC_SDA_OBC      J1    -44   D0394PA00X+008362Y+011591X0669Y0669R270S0
317ET-(J1-PIN_45)   J1    -45   D0394PA00X+009362Y+010591X0669Y0669R270S0
317ET-(J1-PIN_46)   J1    -46   D0394PA00X+009362Y+011591X0669Y0669R270S0
317ET-(J1-PIN_47)   J1    -47   D0394PA00X+010362Y+010591X0669Y0669R270S0
317ET-(J1-PIN_48)   J1    -48   D0394PA00X+010362Y+011591X0669Y0669R270S0
317ET-(J1-PIN_49)   J1    -49   D0394PA00X+011362Y+010591X0669Y0669R270S0
317ET-(J1-PIN_50)   J1    -50   D0394PA00X+011362Y+011591X0669Y0669R270S0
317GND              J1    -51   D0394PA00X+012362Y+010591X0669Y0669R270S0
317GND              J1    -52   D0394PA00X+012362Y+011591X0669Y0669R270S0
327ET-(INA_1-IN+)   C37   -1          A01X-013942Y+000098X0394Y0571R000S2
327GND              C37   -2          A01X-013194Y+000098X0394Y0571R000S2
327SPI_1_SCK        TP12  -1          A01X+011606Y+004354X0394Y0000R270S2
327I2C_RESET        R26   -1          A01X-006358Y-001890X0404Y0551R270S2
327+3.3V            R26   -2          A01X-006358Y-001171X0404Y0551R270S2
327FPGA_INIT        TP7   -1          A01X-005394Y-001004X0394Y0000R000S2
327AGND_2V5         R7    -1          A01X-009465Y-009114X0404Y0551R000S2
327NET-(U5-VADJ)    R7    -2          A01X-008747Y-009114X0404Y0551R000S2
327SPI_CS_P         U10   -1          A01X+001949Y+007815X0118Y0118R270S2
327SPI_CS_N         U10   -2          A01X+001949Y+008091X0118Y0118R270S2
327GND              U10   -3          A01X+001614Y+007953X0118Y0118R270S2
327AGND_1V8         R3    -1          A01X-001954Y-009114X0404Y0551R000S2
327NET-(U3-VADJ)    R3    -2          A01X-001235Y-009114X0404Y0551R000S2
327+5V              C11   -1          A01X+007335Y-009429X0394Y0571R000S2
327GND              C11   -2          A01X+008083Y-009429X0394Y0571R000S2
327+3.3V            C45   -1          A01X-009080Y-002846X0220Y0244R270S2
327GND              C45   -2          A01X-009080Y-002469X0220Y0244R270S2
327IIC_SDA_OBC      TP18  -1          A01X+004144Y+004734X0394Y0000R000S2
327+3.3V            R13   -1          A01X-004685Y+000773X0404Y0551R090S2
327FPAG_DONE        R13   -2          A01X-004685Y+000054X0404Y0551R090S2
317GPIO_1           J3    -1    D0394PA00X+014661Y-003701X0669Y0669R180S0
317GPIO_2           J3    -2    D0394PA00X+013661Y-003701X0669Y0669R180S0
317GPIO_3           J3    -3    D0394PA00X+014661Y-002701X0669Y0669R180S0
317GPIO_4           J3    -4    D0394PA00X+013661Y-002701X0669Y0669R180S0
317GPIO_5           J3    -5    D0394PA00X+014661Y-001701X0669Y0669R180S0
317GPIO_6           J3    -6    D0394PA00X+013661Y-001701X0669Y0669R180S0
317GPIO_7           J3    -7    D0394PA00X+014661Y-000701X0669Y0669R180S0
317GPIO_8           J3    -8    D0394PA00X+013661Y-000701X0669Y0669R180S0
317GND              J3    -9    D0394PA00X+014661Y+000299X0669Y0669R180S0
317GND              J3    -10   D0394PA00X+013661Y+000299X0669Y0669R180S0
317+3.3V            J3    -11   D0394PA00X+014661Y+001299X0669Y0669R180S0
317+3.3V            J3    -12   D0394PA00X+013661Y+001299X0669Y0669R180S0
327/1V_SENSE        TP1   -1          A01X-014635Y-002185X0394Y0000R180S2
327+3.3V            R24   -1          A01X+008079Y-000507X0404Y0551R180S2
327SPI_1_IO3        R24   -2          A01X+007360Y-000507X0404Y0551R180S2
327SPI_1_IO3        FLASH_-1          A01X+007226Y+000472X0807Y0236R270S2
327+3.3V            FLASH_-2          A01X+007726Y+000472X0807Y0236R270S2
327LASH}RFU-PAD3)   FLASH_-3          A01X+008226Y+000472X0807Y0236R270S2
327SH_1-DNU-PAD4)   FLASH_-4          A01X+008726Y+000472X0807Y0236R270S2
327SH_1-DNU-PAD5)   FLASH_-5          A01X+009226Y+000472X0807Y0236R270S2
327SH_1-RFU-PAD6)   FLASH_-6          A01X+009726Y+000472X0807Y0236R270S2
327SPI_1_CS_FLASH   FLASH_-7          A01X+010226Y+000472X0807Y0236R270S2
327SPI_1_MISO_IO1   FLASH_-8          A01X+010726Y+000472X0807Y0236R270S2
327SPI_1_IO2        FLASH_-9          A01X+010726Y+004134X0807Y0236R270S2
327GND              FLASH_-10         A01X+010226Y+004134X0807Y0236R270S2
327H_1-DNU-PAD11)   FLASH_-11         A01X+009726Y+004134X0807Y0236R270S2
327H_1-DNU-PAD12)   FLASH_-12         A01X+009226Y+004134X0807Y0236R270S2
327SH_1-NC-PAD13)   FLASH_-13         A01X+008726Y+004134X0807Y0236R270S2
327+3.3V            FLASH_-14         A01X+008226Y+004134X0807Y0236R270S2
327SPI_1_MOSI_IO0   FLASH_-15         A01X+007726Y+004134X0807Y0236R270S2
327SPI_1_SCK        FLASH_-16         A01X+007226Y+004134X0807Y0236R270S2
327+3.3V            R25   -1          A01X+010226Y-001102X0404Y0551R270S2
327SPI_1_CS_FLASH   R25   -2          A01X+010226Y-000384X0404Y0551R270S2
327+5V              C1    -1          A01X-011541Y+000098X0394Y0571R180S2
327GND              C1    -2          A01X-012289Y+000098X0394Y0571R180S2
327IIC_SDA_OBC      D2    -1          A01X+006310Y+008159X0142Y0098R180S2
327GND              D2    -2          A01X+006641Y+008159X0142Y0098R180S2
327JTAG_TDO         TP6   -1          A01X+014776Y+006033X0394Y0000R000S2
327IIC_SCL_OBC      D1    -1          A01X+005895Y+008159X0142Y0098R000S2
327GND              D1    -2          A01X+005564Y+008159X0142Y0098R000S2
327NET-(INA_4-A1)   INA_4 -1          A01X-007502Y-007935X0768Y0236R180S2
327NET-(INA_4-A0)   INA_4 -2          A01X-007502Y-007435X0768Y0236R180S2
327IIC_SDA          INA_4 -3          A01X-007502Y-006935X0768Y0236R180S2
327IIC_SCL          INA_4 -4          A01X-007502Y-006435X0768Y0236R180S2
327+3.3V            INA_4 -5          A01X-009451Y-006435X0768Y0236R180S2
327GND              INA_4 -6          A01X-009451Y-006935X0768Y0236R180S2
327/2V5_SENSE       INA_4 -7          A01X-009451Y-007435X0768Y0236R180S2
327ET-(INA_4-IN+)   INA_4 -8          A01X-009451Y-007935X0768Y0236R180S2
3271V8_VOLTAGE_EN   TP21  -1          A01X-002776Y-013051X0394Y0000R000S2
327AGND_1V8         R4    -1          A01X+003016Y-012077X0404Y0551R270S2
327-RT{SLASH}CLK)   R4    -2          A01X+003016Y-011358X0404Y0551R270S2
327ET-(INA_2-IN+)   C18   -1          A01X+002252Y-010020X0220Y0244R180S2
327GND              C18   -2          A01X+001874Y-010020X0220Y0244R180S2
327+3.3V            C46   -1          A01X-002618Y-006484X0220Y0244R090S2
327GND              C46   -2          A01X-002618Y-006862X0220Y0244R090S2
327IIC_SCL          R22   -1          A01X+007141Y-005157X0404Y0551R000S2
327+3.3V            R22   -2          A01X+007859Y-005157X0404Y0551R000S2
327SPI_1_MISO_IO1   TP14  -1          A01X+011606Y+002724X0394Y0000R270S2
327+5V_UNFUSED      F5    -1          A01X+001580Y+009163X0443Y1339R180S2
327+5V              F5    -2          A01X-000103Y+009163X0443Y1339R180S2
327FPGA_PROGB       TP8   -1          A01X-005394Y-001791X0394Y0000R000S2
327ET-(INA_3-IN+)   C31   -1          A01X+009736Y-007854X0394Y0571R180S2
327GND              C31   -2          A01X+008988Y-007854X0394Y0571R180S2
327ET-(INA_4-IN+)   C32   -1          A01X-005268Y-008642X0394Y0571R180S2
327GND              C32   -2          A01X-006016Y-008642X0394Y0571R180S2
327NET-(F1-PAD1)    F1    -1          A01X-013883Y+004744X0492Y0689R090S2
327ET-(INA_1-IN+)   F1    -2          A01X-013883Y+003642X0492Y0689R090S2
327ET-(U6-~{INT})   R27   -1          A01X-007205Y-001890X0404Y0551R270S2
327+3.3V            R27   -2          A01X-007205Y-001171X0404Y0551R270S2
327ET-(INA_1-IN+)   R9    -1          A01X-013449Y-002228X0394Y1339R090S2
327/1V_SENSE        R9    -2          A01X-013449Y-002819X0394Y1339R090S2
327NET-(INA_2-A1)   INA_2 -1          A01X+000010Y-007935X0768Y0236R180S2
327NET-(INA_2-A0)   INA_2 -2          A01X+000010Y-007435X0768Y0236R180S2
327IIC_SDA          INA_2 -3          A01X+000010Y-006935X0768Y0236R180S2
327IIC_SCL          INA_2 -4          A01X+000010Y-006435X0768Y0236R180S2
327+3.3V            INA_2 -5          A01X-001939Y-006435X0768Y0236R180S2
327GND              INA_2 -6          A01X-001939Y-006935X0768Y0236R180S2
327/1V8_SENSE       INA_2 -7          A01X-001939Y-007435X0768Y0236R180S2
327ET-(INA_2-IN+)   INA_2 -8          A01X-001939Y-007935X0768Y0236R180S2
317GND              H1    -1    D1496PA00X+013780Y+013307X2283Y0000R000S0
327JTAG_TCK         TP9   -1          A01X+014776Y+005030X0394Y0000R000S2
327ET-(INA_2-IN+)   C30   -1          A01X+002244Y-008642X0394Y0571R180S2
327GND              C30   -2          A01X+001496Y-008642X0394Y0571R180S2
327+3.3V            TP27  -1          A01X+014772Y+003028X0394Y0000R000S2
327SPI_MOSI_IO0_N   R36   -1          A01X-004701Y+004806X0404Y0551R270S2
327SPI_MOSI_IO0_P   R36   -2          A01X-004701Y+005525X0404Y0551R270S2
327JTAG_TMS         TP3   -1          A01X+014776Y+008022X0394Y0000R000S2
327+3.3V            C48   -1          A01X-010130Y-006484X0220Y0244R090S2
327GND              C48   -2          A01X-010130Y-006862X0220Y0244R090S2
327SPI_CS_N         R37   -1          A01X-002170Y+004823X0404Y0551R000S2
327SPI_CS_P         R37   -2          A01X-001452Y+004823X0404Y0551R000S2
317GND              H3    -1    D1496PA00X+013780Y-014252X2283Y0000R000S0
3273V3_VOLTAGE_EN   TP22  -1          A01X+004715Y-013053X0394Y0000R180S2
327GND              NT6   -1          A01X+000773Y-010719X0315Y0000R135S3
327AGND_1V8         NT6   -2          A01X+000495Y-010997X0315Y0000R135S3
3272V5_VOLTAGE_EN   TP23  -1          A01X-010283Y-013051X0394Y0000R180S2
327ET-(INA_3-IN+)   R11   -1          A01X+009244Y-007102X0394Y1339R270S2
327/3V3_SENSE       R11   -2          A01X+009244Y-006512X0394Y1339R270S2
327SPI_1_IO3        TP16  -1          A01X+011606Y+001094X0394Y0000R270S2
327AGND_3V3         R5    -1          A01X+005539Y-009114X0404Y0551R000S2
327NET-(U4-VADJ)    R5    -2          A01X+006257Y-009114X0404Y0551R000S2
327+5V              C16   -1          A01X-007669Y-008642X0394Y0571R000S2
327GND              C16   -2          A01X-006921Y-008642X0394Y0571R000S2
327NET-(F3-PAD1)    F3    -1          A01X+009677Y-014075X0492Y0689R270S2
327ET-(INA_3-IN+)   F3    -2          A01X+009677Y-012972X0492Y0689R270S2
327SYS_CLK_N        R35   -1          A01X-004695Y+002475X0404Y0551R090S2
327SYS_CLK_P        R35   -2          A01X-004695Y+001757X0404Y0551R090S2
327SPI_MOSI_IO0_P   U8    -1          A01X-009470Y+008080X0118Y0118R135S2
327SPI_MOSI_IO0_N   U8    -2          A01X-009665Y+007885X0118Y0118R135S2
327GND              U8    -3          A01X-009331Y+007746X0118Y0118R135S2
327+5V              C8    -1          A01X-007669Y-009429X0394Y0571R000S2
327GND              C8    -2          A01X-006921Y-009429X0394Y0571R000S2
327+3.3V            R14   -1          A01X-006260Y+000773X0404Y0551R090S2
327FPGA_INIT        R14   -2          A01X-006260Y+000054X0404Y0551R090S2
327/1V8_SENSE       TP2   -1          A01X+002937Y-007146X0394Y0000R000S2
327AGND_3V3         U4    -1          A01X+005553Y-010327X0630Y0748R000S2
327AGND_3V3         U4    -2          A01X+005417Y-010925X0217Y0354R270S2
327-(U4-DNC-PAD3)   U4    -3          A01X+005417Y-011280X0217Y0354R270S2
327-(U4-DNC-PAD4)   U4    -4          A01X+005417Y-011634X0217Y0354R270S2
327-(U4-DNC-PAD5)   U4    -5          A01X+005417Y-011988X0217Y0354R270S2
327SLASH}TR-PAD6)   U4    -6          A01X+005417Y-012343X0217Y0354R270S2
327AGND_3V3         U4    -7          A01X+005417Y-012697X0217Y0354R270S2
3273V3_VOLTAGE_EN   U4    -8          A01X+005417Y-013051X0217Y0354R270S2
3273V3_VOLTAGE_EN   U4    -9          A01X+005417Y-013405X0217Y0354R270S2
327-(U4-PH-PAD10)   U4    -10         A01X+005417Y-013760X0217Y0354R270S2
327-(U4-PH-PAD10)   U4    -11         A01X+005417Y-014114X0217Y0354R270S2
327-(U4-PH-PAD10)   U4    -12         A01X+005417Y-014468X0217Y0354R270S2
327-(U4-PH-PAD10)   U4    -13         A01X+005417Y-014823X0217Y0354R270S2
327-(U4-PH-PAD10)   U4    -14         A01X+005417Y-015177X0217Y0354R270S2
327(U4-DNC-PAD15)   U4    -15         A01X+005558Y-015770X0630Y0748R000S2
327(U4-DNC-PAD16)   U4    -16         A01X+006095Y-015974X0217Y0354R000S2
327-(U4-PH-PAD10)   U4    -17         A01X+006449Y-015974X0217Y0354R000S2
327(U4-DNC-PAD18)   U4    -18         A01X+006803Y-015974X0217Y0354R000S2
327(U4-DNC-PAD19)   U4    -19         A01X+007158Y-015974X0217Y0354R000S2
327(U4-DNC-PAD20)   U4    -20         A01X+007512Y-015974X0217Y0354R000S2
327NET-(F3-PAD1)    U4    -21         A01X+007866Y-015974X0217Y0354R000S2
327(U4-DNC-PAD22)   U4    -22         A01X+008221Y-015974X0217Y0354R000S2
327(U4-DNC-PAD23)   U4    -23         A01X+008756Y-015770X0630Y0748R000S2
327NET-(F3-PAD1)    U4    -24         A01X+008898Y-015177X0217Y0354R270S2
327NET-(F3-PAD1)    U4    -25         A01X+008898Y-014823X0217Y0354R270S2
327NET-(F3-PAD1)    U4    -26         A01X+008898Y-014468X0217Y0354R270S2
327NET-(F3-PAD1)    U4    -27         A01X+008898Y-014114X0217Y0354R270S2
327NET-(F3-PAD1)    U4    -28         A01X+008898Y-013760X0217Y0354R270S2
327NET-(F3-PAD1)    U4    -29         A01X+008898Y-013405X0217Y0354R270S2
327(U4-DNC-PAD30)   U4    -30         A01X+008898Y-013051X0217Y0354R270S2
327(U4-DNC-PAD31)   U4    -31         A01X+008898Y-012697X0217Y0354R270S2
327(U4-DNC-PAD32)   U4    -32         A01X+008898Y-012343X0217Y0354R270S2
3273V3_PWRGD        U4    -33         A01X+008898Y-011988X0217Y0354R270S2
327AGND_3V3         U4    -34         A01X+008898Y-011634X0217Y0354R270S2
327SLASH}CLK)#1     U4    -35         A01X+008898Y-011280X0217Y0354R270S2
327GND              U4    -36         A01X+008898Y-010925X0217Y0354R270S2
327GND              U4    -37         A01X+008762Y-010327X0630Y0748R000S2
327GND              U4    -38         A01X+008221Y-010128X0217Y0354R000S2
327+5V              U4    -39         A01X+007866Y-010128X0217Y0354R000S2
327+5V              U4    -40         A01X+007512Y-010128X0217Y0354R000S2
327+5V              U4    -41         A01X+007158Y-010128X0217Y0354R000S2
327+5V              U4    -42         A01X+006803Y-010128X0217Y0354R000S2
327NET-(U4-VADJ)    U4    -43         A01X+006449Y-010128X0217Y0354R000S2
327NET-(JP3-C)      U4    -44         A01X+006095Y-010128X0217Y0354R000S2
327AGND_3V3         U4    -45         A01X+007158Y-011633X0769Y0772R000S2
327AGND_3V3         U4    -45         A01X+007158Y-011634X2362Y0230R000S2
327-(U4-PH-PAD10)   U4    -46         A01X+006183Y-014467X0827Y1575R000S2
327NET-(F3-PAD1)    U4    -47         A01X+008132Y-014466X0827Y1575R000S2
327+5V              C14   -1          A01X-000157Y-008642X0394Y0571R000S2
327GND              C14   -2          A01X+000591Y-008642X0394Y0571R000S2
327ET-(INA_3-IN+)   C39   -1          A01X+009736Y-009429X0394Y0571R180S2
327GND              C39   -2          A01X+008988Y-009429X0394Y0571R180S2
327+3.3V            C47   -1          A01X+004874Y-006484X0220Y0244R090S2
327GND              C47   -2          A01X+004874Y-006862X0220Y0244R090S2
327GND              R18   -1          A01X+005276Y-001467X0404Y0551R180S2
327FPGA_M2          R18   -2          A01X+004557Y-001467X0404Y0551R180S2
317GND              H2    -1    D1496PA00X-013780Y-014252X2283Y0000R000S0
327JTAG_TDI         TP4   -1          A01X+014776Y+007018X0394Y0000R000S2
327ET-(INA_2-IN+)   C38   -1          A01X+002244Y-007854X0394Y0571R180S2
327GND              C38   -2          A01X+001496Y-007854X0394Y0571R180S2
327+3.3V            Y1    -1          A01X-006132Y+002825X0433Y0354R000S2
327D-(Y1-NC-PAD2)   Y1    -2          A01X-006132Y+002352X0433Y0354R000S2
327GND              Y1    -3          A01X-006132Y+001880X0433Y0354R000S2
327SYS_CLK_P        Y1    -4          A01X-005502Y+001880X0433Y0354R000S2
327SYS_CLK_N        Y1    -5          A01X-005502Y+002352X0433Y0354R000S2
327+3.3V            Y1    -6          A01X-005502Y+002825X0433Y0354R000S2
327GND              R31   -1          A01X-011908Y-014624X0404Y0551R315S2
327VCCINT           R31   -2          A01X-011400Y-014116X0404Y0551R315S2
327/3V3_SENSE       TP24  -1          A01X+010429Y-007146X0394Y0000R000S2
327+5V              D3    -1          A01X-001102Y+009154X0984Y0709R180S2
327GND              D3    -2          A01X-002677Y+009154X0984Y0709R180S2
327GND              R17   -1          A01X+005276Y-000669X0404Y0551R180S2
327FPGA_M1          R17   -2          A01X+004557Y-000669X0404Y0551R180S2
327I2C_RESET        U6    -1          A01X-007008Y-003888X0344Y0098R270S2
3272V5_VOLTAGE_EN   U6    -2          A01X-006811Y-003888X0344Y0098R270S2
3273V3_VOLTAGE_EN   U6    -3          A01X-006614Y-003888X0344Y0098R270S2
3271V8_VOLTAGE_EN   U6    -4          A01X-006417Y-003888X0344Y0098R270S2
3273V3_PWRGD        U6    -5          A01X-006147Y-003617X0098Y0344R270S2
327GND              U6    -6          A01X-006147Y-003420X0098Y0344R270S2
327FPAG_DONE        U6    -7          A01X-006147Y-003223X0098Y0344R270S2
327FPGA_PROGB       U6    -8          A01X-006147Y-003027X0098Y0344R270S2
327FPGA_INIT        U6    -9          A01X-006417Y-002756X0344Y0098R270S2
327I2C_RESET        U6    -10         A01X-006614Y-002756X0344Y0098R270S2
327ET-(U6-~{INT})   U6    -11         A01X-006811Y-002756X0344Y0098R270S2
327IIC_SCL_OBC      U6    -12         A01X-007008Y-002756X0344Y0098R270S2
327IIC_SDA_OBC      U6    -13         A01X-007279Y-003027X0098Y0344R270S2
327+3.3V            U6    -14         A01X-007279Y-003223X0098Y0344R270S2
327+3.3V            U6    -15         A01X-007279Y-003420X0098Y0344R270S2
327GND              U6    -16         A01X-007279Y-003617X0098Y0344R270S2
317GND              U6    -17   D0079PA00X-006929Y-003538X0197Y0000R270S3
317GND              U6    -17   D0079PA00X-006496Y-003538X0197Y0000R270S3
327GND              U6    -17         A01X-006713Y-003322X0630Y0630R270S2
327GND              U6    -17         A04X-006713Y-003322X0630Y0630R270S3
317GND              U6    -17   D0079PA00X-006929Y-003105X0197Y0000R270S3
317GND              U6    -17   D0079PA00X-006496Y-003105X0197Y0000R270S3
327+3.3V            R23   -1          A01X+009880Y+005084X0404Y0551R000S2
327SPI_1_IO2        R23   -2          A01X+010598Y+005084X0404Y0551R000S2
327ET-(INA_4-IN+)   C20   -1          A01X-005260Y-010020X0220Y0244R180S2
327GND              C20   -2          A01X-005638Y-010020X0220Y0244R180S2
317VCCINT           J4    -1    D0394PA00X+014634Y-010787X0669Y0669R180S0
317VCCINT           J4    -2    D0394PA00X+013634Y-010787X0669Y0669R180S0
317+1.8V            J4    -3    D0394PA00X+014634Y-009787X0669Y0669R180S0
317+1.8V            J4    -4    D0394PA00X+013634Y-009787X0669Y0669R180S0
317+2.5V            J4    -5    D0394PA00X+014634Y-008787X0669Y0669R180S0
317+2.5V            J4    -6    D0394PA00X+013634Y-008787X0669Y0669R180S0
317+3.3V            J4    -7    D0394PA00X+014634Y-007787X0669Y0669R180S0
317+3.3V            J4    -8    D0394PA00X+013634Y-007787X0669Y0669R180S0
317+5V              J4    -9    D0394PA00X+014634Y-006787X0669Y0669R180S0
317+5V              J4    -10   D0394PA00X+013634Y-006787X0669Y0669R180S0
317GND              J4    -11   D0394PA00X+014634Y-005787X0669Y0669R180S0
317GND              J4    -12   D0394PA00X+013634Y-005787X0669Y0669R180S0
327SPI_SCK_P        U7    -1          A01X-008002Y+009459X0118Y0118R180S2
327SPI_SCK_N        U7    -2          A01X-008278Y+009459X0118Y0118R180S2
327GND              U7    -3          A01X-008140Y+009124X0118Y0118R180S2
327FPAG_DONE        TP5   -1          A01X-005394Y-002579X0394Y0000R000S2
3271V_VOLTAGE_EN    TP20  -1          A01X-008927Y+003720X0394Y0000R180S2
327+3.3V            C52   -1          A01X-006732Y+002541X0220Y0244R090S2
327GND              C52   -2          A01X-006732Y+002163X0220Y0244R090S2
327IIC_SCL          TP11  -1          A01X+000811Y-005512X0394Y0000R000S2
327AGND_3V3         R6    -1          A01X+010508Y-012077X0404Y0551R270S2
327SLASH}CLK)#1     R6    -2          A01X+010508Y-011358X0404Y0551R270S2
327ET-(INA_1-IN+)   C17   -1          A01X-013950Y+000689X0220Y0244R000S2
327GND              C17   -2          A01X-013572Y+000689X0220Y0244R000S2
327AD4N_35-PADA1)   U1    -A1         A01X-003307Y-003307X0157Y0000R270S2
327GND              U1    -A2         A01X-003307Y-002992X0157Y0000R270S2
327GND              U1    -A3         A01X-003307Y-002677X0157Y0000R270S2
327XN0_216-PADA4)   U1    -A4         A01X-003307Y-002362X0157Y0000R270S2
327GND              U1    -A5         A01X-003307Y-002047X0157Y0000R270S2
327XN2_216-PADA6)   U1    -A6         A01X-003307Y-001732X0157Y0000R270S2
327GND              U1    -A7         A01X-003307Y-001417X0157Y0000R270S2
327XN0_216-PADA8)   U1    -A8         A01X-003307Y-001102X0157Y0000R270S2
327GND              U1    -A9         A01X-003307Y-000787X0157Y0000R270S2
327N2_216-PADA10)   U1    -A10        A01X-003307Y-000472X0157Y0000R270S2
327GND              U1    -A11        A01X-003307Y-000157X0157Y0000R270S2
327GND              U1    -A12        A01X-003307Y+000157X0157Y0000R270S2
327_T1_16-PADA13)   U1    -A13        A01X-003307Y+000472X0157Y0000R270S2
327_T1_16-PADA14)   U1    -A14        A01X-003307Y+000787X0157Y0000R270S2
327DQS_16-PADA15)   U1    -A15        A01X-003307Y+001102X0157Y0000R270S2
327DQS_16-PADA16)   U1    -A16        A01X-003307Y+001417X0157Y0000R270S2
327+2.5V            U1    -A17        A01X-003307Y+001732X0157Y0000R270S2
327_T2_16-PADA18)   U1    -A18        A01X-003307Y+002047X0157Y0000R270S2
327_T2_16-PADA19)   U1    -A19        A01X-003307Y+002362X0157Y0000R270S2
327SPI_MOSI_IO0_N   U1    -A20        A01X-003307Y+002677X0157Y0000R270S2
327DQS_16-PADA21)   U1    -A21        A01X-003307Y+002992X0157Y0000R270S2
327GND              U1    -A22        A01X-003307Y+003307X0157Y0000R270S2
327GPIO_1           U1    -AA1        A01X+002992Y-003307X0157Y0000R270S2
327GND              U1    -AA2        A01X+002992Y-002992X0157Y0000R270S2
327DQS_34-PADAA3)   U1    -AA3        A01X+002992Y-002677X0157Y0000R270S2
327RCC_34-PADAA4)   U1    -AA4        A01X+002992Y-002362X0157Y0000R270S2
327_T1_34-PADAA5)   U1    -AA5        A01X+002992Y-002047X0157Y0000R270S2
327_T2_34-PADAA6)   U1    -AA6        A01X+002992Y-001732X0157Y0000R270S2
327+3.3V            U1    -AA7        A01X+002992Y-001417X0157Y0000R270S2
327_T3_34-PADAA8)   U1    -AA8        A01X+002992Y-001102X0157Y0000R270S2
327_T1_13-PADAA9)   U1    -AA9        A01X+002992Y-000787X0157Y0000R270S2
327QS_13-PADAA10)   U1    -AA10       A01X+002992Y-000472X0157Y0000R270S2
327QS_13-PADAA11)   U1    -AA11       A01X+002992Y-000157X0157Y0000R270S2
327GND              U1    -AA12       A01X+002992Y+000157X0157Y0000R270S2
327QS_13-PADAA13)   U1    -AA13       A01X+002992Y+000472X0157Y0000R270S2
327T0_13-PADAA14)   U1    -AA14       A01X+002992Y+000787X0157Y0000R270S2
327T0_13-PADAA15)   U1    -AA15       A01X+002992Y+001102X0157Y0000R270S2
327T0_13-PADAA16)   U1    -AA16       A01X+002992Y+001417X0157Y0000R270S2
327+3.3V            U1    -AA17       A01X+002992Y+001732X0157Y0000R270S2
32730_14-PADAA18)   U1    -AA18       A01X+002992Y+002047X0157Y0000R270S2
327_B_14-PADAA19)   U1    -AA19       A01X+002992Y+002362X0157Y0000R270S2
327CAN_H            U1    -AA20       A01X+002992Y+002677X0157Y0000R270S2
32712_14-PADAA21)   U1    -AA21       A01X+002992Y+002992X0157Y0000R270S2
327GND              U1    -AA22       A01X+002992Y+003307X0157Y0000R270S2
327GPIO_2           U1    -AB1        A01X+003307Y-003307X0157Y0000R270S2
327GPIO_3           U1    -AB2        A01X+003307Y-002992X0157Y0000R270S2
327GPIO_4           U1    -AB3        A01X+003307Y-002677X0157Y0000R270S2
327+3.3V            U1    -AB4        A01X+003307Y-002362X0157Y0000R270S2
327GPIO_5           U1    -AB5        A01X+003307Y-002047X0157Y0000R270S2
327GPIO_6           U1    -AB6        A01X+003307Y-001732X0157Y0000R270S2
327GPIO_7           U1    -AB7        A01X+003307Y-001417X0157Y0000R270S2
327GPIO_8           U1    -AB8        A01X+003307Y-001102X0157Y0000R270S2
327GND              U1    -AB9        A01X+003307Y-000787X0157Y0000R270S2
327T1_13-PADAB10)   U1    -AB10       A01X+003307Y-000472X0157Y0000R270S2
327T1_13-PADAB11)   U1    -AB11       A01X+003307Y-000157X0157Y0000R270S2
327T1_13-PADAB12)   U1    -AB12       A01X+003307Y+000157X0157Y0000R270S2
327QS_13-PADAB13)   U1    -AB13       A01X+003307Y+000472X0157Y0000R270S2
327+3.3V            U1    -AB14       A01X+003307Y+000787X0157Y0000R270S2
327T0_13-PADAB15)   U1    -AB15       A01X+003307Y+001102X0157Y0000R270S2
327T0_13-PADAB16)   U1    -AB16       A01X+003307Y+001417X0157Y0000R270S2
327T0_13-PADAB17)   U1    -AB17       A01X+003307Y+001732X0157Y0000R270S2
32729_14-PADAB18)   U1    -AB18       A01X+003307Y+002047X0157Y0000R270S2
327GND              U1    -AB19       A01X+003307Y+002362X0157Y0000R270S2
327CAN_L            U1    -AB20       A01X+003307Y+002677X0157Y0000R270S2
327IIC_SDA_OBC      U1    -AB21       A01X+003307Y+002992X0157Y0000R270S2
327IIC_SCL_OBC      U1    -AB22       A01X+003307Y+003307X0157Y0000R270S2
327AD4P_35-PADB1)   U1    -B1         A01X-002992Y-003307X0157Y0000R270S2
327D12N_35-PADB2)   U1    -B2         A01X-002992Y-002992X0157Y0000R270S2
327GND              U1    -B3         A01X-002992Y-002677X0157Y0000R270S2
327XP0_216-PADB4)   U1    -B4         A01X-002992Y-002362X0157Y0000R270S2
327GND              U1    -B5         A01X-002992Y-002047X0157Y0000R270S2
327XP2_216-PADB6)   U1    -B6         A01X-002992Y-001732X0157Y0000R270S2
327GND              U1    -B7         A01X-002992Y-001417X0157Y0000R270S2
327XP0_216-PADB8)   U1    -B8         A01X-002992Y-001102X0157Y0000R270S2
327GND              U1    -B9         A01X-002992Y-000787X0157Y0000R270S2
327P2_216-PADB10)   U1    -B10        A01X-002992Y-000472X0157Y0000R270S2
327GND              U1    -B11        A01X-002992Y-000157X0157Y0000R270S2
327GND              U1    -B12        A01X-002992Y+000157X0157Y0000R270S2
327_T1_16-PADB13)   U1    -B13        A01X-002992Y+000472X0157Y0000R270S2
327+2.5V            U1    -B14        A01X-002992Y+000787X0157Y0000R270S2
327_T1_16-PADB15)   U1    -B15        A01X-002992Y+001102X0157Y0000R270S2
327_T1_16-PADB16)   U1    -B16        A01X-002992Y+001417X0157Y0000R270S2
327SPI_SCK_P        U1    -B17        A01X-002992Y+001732X0157Y0000R270S2
327SPI_SCK_N        U1    -B18        A01X-002992Y+002047X0157Y0000R270S2
327GND              U1    -B19        A01X-002992Y+002362X0157Y0000R270S2
327SPI_MOSI_IO0_P   U1    -B20        A01X-002992Y+002677X0157Y0000R270S2
327DQS_16-PADB21)   U1    -B21        A01X-002992Y+002992X0157Y0000R270S2
327SPI_MISO_IO1_N   U1    -B22        A01X-002992Y+003307X0157Y0000R270S2
327+3.3V            U1    -C1         A01X-002677Y-003307X0157Y0000R270S2
327D12P_35-PADC2)   U1    -C2         A01X-002677Y-002992X0157Y0000R270S2
327GND              U1    -C3         A01X-002677Y-002677X0157Y0000R270S2
327GND              U1    -C4         A01X-002677Y-002362X0157Y0000R270S2
327XN1_216-PADC5)   U1    -C5         A01X-002677Y-002047X0157Y0000R270S2
327GND              U1    -C6         A01X-002677Y-001732X0157Y0000R270S2
327XN3_216-PADC7)   U1    -C7         A01X-002677Y-001417X0157Y0000R270S2
327GND              U1    -C8         A01X-002677Y-001102X0157Y0000R270S2
327XN3_216-PADC9)   U1    -C9         A01X-002677Y-000787X0157Y0000R270S2
327GND              U1    -C10        A01X-002677Y-000472X0157Y0000R270S2
327N1_216-PADC11)   U1    -C11        A01X-002677Y-000157X0157Y0000R270S2
327GND              U1    -C12        A01X-002677Y+000157X0157Y0000R270S2
327_T1_16-PADC13)   U1    -C13        A01X-002677Y+000472X0157Y0000R270S2
327DQS_16-PADC14)   U1    -C14        A01X-002677Y+000787X0157Y0000R270S2
327DQS_16-PADC15)   U1    -C15        A01X-002677Y+001102X0157Y0000R270S2
327GND              U1    -C16        A01X-002677Y+001417X0157Y0000R270S2
327RCC_16-PADC17)   U1    -C17        A01X-002677Y+001732X0157Y0000R270S2
327RCC_16-PADC18)   U1    -C18        A01X-002677Y+002047X0157Y0000R270S2
327RCC_16-PADC19)   U1    -C19        A01X-002677Y+002362X0157Y0000R270S2
327REF_16-PADC20)   U1    -C20        A01X-002677Y+002677X0157Y0000R270S2
327+2.5V            U1    -C21        A01X-002677Y+002992X0157Y0000R270S2
327SPI_MISO_IO1_P   U1    -C22        A01X-002677Y+003307X0157Y0000R270S2
327AD5N_35-PADD1)   U1    -D1         A01X-002362Y-003307X0157Y0000R270S2
327N_T0_35-PADD2)   U1    -D2         A01X-002362Y-002992X0157Y0000R270S2
327GND              U1    -D3         A01X-002362Y-002677X0157Y0000R270S2
327GND              U1    -D4         A01X-002362Y-002362X0157Y0000R270S2
327XP1_216-PADD5)   U1    -D5         A01X-002362Y-002047X0157Y0000R270S2
327MGTAVCC-PADD6)   U1    -D6         A01X-002362Y-001732X0157Y0000R270S2
327XP3_216-PADD7)   U1    -D7         A01X-002362Y-001417X0157Y0000R270S2
327GND              U1    -D8         A01X-002362Y-001102X0157Y0000R270S2
327XP3_216-PADD9)   U1    -D9         A01X-002362Y-000787X0157Y0000R270S2
327GTAVCC-PADD10)   U1    -D10        A01X-002362Y-000472X0157Y0000R270S2
327P1_216-PADD11)   U1    -D11        A01X-002362Y-000157X0157Y0000R270S2
327GND              U1    -D12        A01X-002362Y+000157X0157Y0000R270S2
327GND              U1    -D13        A01X-002362Y+000472X0157Y0000R270S2
327_T0_16-PADD14)   U1    -D14        A01X-002362Y+000787X0157Y0000R270S2
327REF_16-PADD15)   U1    -D15        A01X-002362Y+001102X0157Y0000R270S2
327_T0_16-PADD16)   U1    -D16        A01X-002362Y+001417X0157Y0000R270S2
327RCC_16-PADD17)   U1    -D17        A01X-002362Y+001732X0157Y0000R270S2
327+2.5V            U1    -D18        A01X-002362Y+002047X0157Y0000R270S2
327SYS_CLK_N        U1    -D19        A01X-002362Y+002362X0157Y0000R270S2
327_T3_16-PADD20)   U1    -D20        A01X-002362Y+002677X0157Y0000R270S2
327_T3_16-PADD21)   U1    -D21        A01X-002362Y+002992X0157Y0000R270S2
327SPI_CS_N         U1    -D22        A01X-002362Y+003307X0157Y0000R270S2
327AD5P_35-PADE1)   U1    -E1         A01X-002047Y-003307X0157Y0000R270S2
327P_T0_35-PADE2)   U1    -E2         A01X-002047Y-002992X0157Y0000R270S2
327VREF_35-PADE3)   U1    -E3         A01X-002047Y-002677X0157Y0000R270S2
327GND              U1    -E4         A01X-002047Y-002362X0157Y0000R270S2
327GND              U1    -E5         A01X-002047Y-002047X0157Y0000R270S2
327K0N_216-PADE6)   U1    -E6         A01X-002047Y-001732X0157Y0000R270S2
327GND              U1    -E7         A01X-002047Y-001417X0157Y0000R270S2
327MGTAVCC-PADE8)   U1    -E8         A01X-002047Y-001102X0157Y0000R270S2
327GND              U1    -E9         A01X-002047Y-000787X0157Y0000R270S2
3271N_216-PADE10)   U1    -E10        A01X-002047Y-000472X0157Y0000R270S2
327GND              U1    -E11        A01X-002047Y-000157X0157Y0000R270S2
327+1.8V            U1    -E12        A01X-002047Y+000157X0157Y0000R270S2
327_T0_16-PADE13)   U1    -E13        A01X-002047Y+000472X0157Y0000R270S2
327_T0_16-PADE14)   U1    -E14        A01X-002047Y+000787X0157Y0000R270S2
327+2.5V            U1    -E15        A01X-002047Y+001102X0157Y0000R270S2
327_T0_16-PADE16)   U1    -E16        A01X-002047Y+001417X0157Y0000R270S2
327_T0_16-PADE17)   U1    -E17        A01X-002047Y+001732X0157Y0000R270S2
327DQS_16-PADE18)   U1    -E18        A01X-002047Y+002047X0157Y0000R270S2
327SYS_CLK_P        U1    -E19        A01X-002047Y+002362X0157Y0000R270S2
327GND              U1    -E20        A01X-002047Y+002677X0157Y0000R270S2
327_T3_16-PADE21)   U1    -E21        A01X-002047Y+002992X0157Y0000R270S2
327SPI_CS_P         U1    -E22        A01X-002047Y+003307X0157Y0000R270S2
327D13N_35-PADF1)   U1    -F1         A01X-001732Y-003307X0157Y0000R270S2
327+3.3V            U1    -F2         A01X-001732Y-002992X0157Y0000R270S2
327P_T0_35-PADF3)   U1    -F3         A01X-001732Y-002677X0157Y0000R270S2
327IO_0_35-PADF4)   U1    -F4         A01X-001732Y-002362X0157Y0000R270S2
327GND              U1    -F5         A01X-001732Y-002047X0157Y0000R270S2
327K0P_216-PADF6)   U1    -F6         A01X-001732Y-001732X0157Y0000R270S2
327MGTAVCC-PADF7)   U1    -F7         A01X-001732Y-001417X0157Y0000R270S2
327GND              U1    -F8         A01X-001732Y-001102X0157Y0000R270S2
327MGTAVCC-PADF9)   U1    -F9         A01X-001732Y-000787X0157Y0000R270S2
3271P_216-PADF10)   U1    -F10        A01X-001732Y-000472X0157Y0000R270S2
327GND              U1    -F11        A01X-001732Y-000157X0157Y0000R270S2
327+3.3V            U1    -F12        A01X-001732Y+000157X0157Y0000R270S2
327_T0_16-PADF13)   U1    -F13        A01X-001732Y+000472X0157Y0000R270S2
327_T0_16-PADF14)   U1    -F14        A01X-001732Y+000787X0157Y0000R270S2
327O_0_16-PADF15)   U1    -F15        A01X-001732Y+001102X0157Y0000R270S2
327_T0_16-PADF16)   U1    -F16        A01X-001732Y+001417X0157Y0000R270S2
327GND              U1    -F17        A01X-001732Y+001732X0157Y0000R270S2
327DQS_16-PADF18)   U1    -F18        A01X-001732Y+002047X0157Y0000R270S2
327_T2_16-PADF19)   U1    -F19        A01X-001732Y+002362X0157Y0000R270S2
327_T2_16-PADF20)   U1    -F20        A01X-001732Y+002677X0157Y0000R270S2
327_25_16-PADF21)   U1    -F21        A01X-001732Y+002992X0157Y0000R270S2
327+2.5V            U1    -F22        A01X-001732Y+003307X0157Y0000R270S2
327D13P_35-PADG1)   U1    -G1         A01X-001417Y-003307X0157Y0000R270S2
327D14N_35-PADG2)   U1    -G2         A01X-001417Y-002992X0157Y0000R270S2
327SRCC_35-PADG3)   U1    -G3         A01X-001417Y-002677X0157Y0000R270S2
327MRCC_35-PADG4)   U1    -G4         A01X-001417Y-002362X0157Y0000R270S2
327GND              U1    -G5         A01X-001417Y-002047X0157Y0000R270S2
327GND              U1    -G6         A01X-001417Y-001732X0157Y0000R270S2
327GND              U1    -G7         A01X-001417Y-001417X0157Y0000R270S2
327GND              U1    -G8         A01X-001417Y-001102X0157Y0000R270S2
327GND              U1    -G9         A01X-001417Y-000787X0157Y0000R270S2
327GND              U1    -G10        A01X-001417Y-000472X0157Y0000R270S2
327FPAG_DONE        U1    -G11        A01X-001417Y-000157X0157Y0000R270S2
327GND              U1    -G12        A01X-001417Y+000157X0157Y0000R270S2
327D0N_15-PADG13)   U1    -G13        A01X-001417Y+000472X0157Y0000R270S2
327GND              U1    -G14        A01X-001417Y+000787X0157Y0000R270S2
327D8P_15-PADG15)   U1    -G15        A01X-001417Y+001102X0157Y0000R270S2
327D8N_15-PADG16)   U1    -G16        A01X-001417Y+001417X0157Y0000R270S2
327_T0_15-PADG17)   U1    -G17        A01X-001417Y+001732X0157Y0000R270S2
327_T0_15-PADG18)   U1    -G18        A01X-001417Y+002047X0157Y0000R270S2
327+3.3V            U1    -G19        A01X-001417Y+002362X0157Y0000R270S2
32710N_15-PADG20)   U1    -G20        A01X-001417Y+002677X0157Y0000R270S2
327_T3_16-PADG21)   U1    -G21        A01X-001417Y+002992X0157Y0000R270S2
327_T3_16-PADG22)   U1    -G22        A01X-001417Y+003307X0157Y0000R270S2
327GND              U1    -H1         A01X-001102Y-003307X0157Y0000R270S2
327D14P_35-PADH2)   U1    -H2         A01X-001102Y-002992X0157Y0000R270S2
327SRCC_35-PADH3)   U1    -H3         A01X-001102Y-002677X0157Y0000R270S2
327MRCC_35-PADH4)   U1    -H4         A01X-001102Y-002362X0157Y0000R270S2
327D15N_35-PADH5)   U1    -H5         A01X-001102Y-002047X0157Y0000R270S2
327+3.3V            U1    -H6         A01X-001102Y-001732X0157Y0000R270S2
327GND              U1    -H7         A01X-001102Y-001417X0157Y0000R270S2
327VCCINT           U1    -H8         A01X-001102Y-001102X0157Y0000R270S2
327GND              U1    -H9         A01X-001102Y-000787X0157Y0000R270S2
327VCCINT           U1    -H10        A01X-001102Y-000472X0157Y0000R270S2
327GND              U1    -H11        A01X-001102Y-000157X0157Y0000R270S2
